{"contracts/StorageContract.sol":{"StorageContract":{"abi":[{"anonymous":false,"inputs":[{"indexed":false,"internalType":"uint256","name":"fileId","type":"uint256"},{"indexed":false,"internalType":"address","name":"owner","type":"address"},{"indexed":false,"internalType":"address","name":"revokedFrom","type":"address"}],"name":"FileAccessRevoked","type":"event"},{"anonymous":false,"inputs":[{"indexed":false,"internalType":"uint256","name":"fileId","type":"uint256"},{"indexed":false,"internalType":"address","name":"owner","type":"address"},{"indexed":false,"internalType":"address","name":"sharedWith","type":"address"}],"name":"FileShared","type":"event"},{"anonymous":false,"inputs":[{"indexed":false,"internalType":"uint256","name":"fileId","type":"uint256"},{"indexed":false,"internalType":"string","name":"fileHash","type":"string"},{"indexed":false,"internalType":"string","name":"fileName","type":"string"},{"indexed":false,"internalType":"uint256","name":"fileSize","type":"uint256"},{"indexed":false,"internalType":"address","name":"owner","type":"address"}],"name":"FileUploaded","type":"event"},{"inputs":[{"internalType":"uint256","name":"_fileId","type":"uint256"},{"internalType":"address","name":"_user","type":"address"}],"name":"checkAccess","outputs":[{"internalType":"bool","name":"","type":"bool"}],"stateMutability":"view","type":"function"},{"inputs":[{"internalType":"uint256","name":"_fileId","type":"uint256"}],"name":"deleteFile","outputs":[{"internalType":"bool","name":"","type":"bool"}],"stateMutability":"nonpayable","type":"function"},{"inputs":[],"name":"fileCount","outputs":[{"internalType":"uint256","name":"","type":"uint256"}],"stateMutability":"view","type":"function"},{"inputs":[{"internalType":"uint256","name":"_fileId","type":"uint256"}],"name":"fileExists","outputs":[{"internalType":"bool","name":"","type":"bool"}],"stateMutability":"view","type":"function"},{"inputs":[{"internalType":"uint256","name":"","type":"uint256"}],"name":"files","outputs":[{"internalType":"string","name":"fileHash","type":"string"},{"internalType":"string","name":"fileName","type":"string"},{"internalType":"string","name":"fileType","type":"string"},{"internalType":"uint256","name":"fileSize","type":"uint256"},{"internalType":"uint256","name":"uploadTime","type":"uint256"},{"internalType":"address","name":"owner","type":"address"}],"stateMutability":"view","type":"function"},{"inputs":[{"internalType":"uint256","name":"_fileId","type":"uint256"}],"name":"getFileDetails","outputs":[{"internalType":"string","name":"fileHash","type":"string"},{"internalType":"string","name":"fileName","type":"string"},{"internalType":"string","name":"fileType","type":"string"},{"internalType":"uint256","name":"fileSize","type":"uint256"},{"internalType":"uint256","name":"uploadTime","type":"uint256"},{"internalType":"address","name":"owner","type":"address"},{"internalType":"bool","name":"hasAccess","type":"bool"}],"stateMutability":"view","type":"function"},{"inputs":[{"internalType":"uint256","name":"_fileId","type":"uint256"}],"name":"getFileSharedList","outputs":[{"internalType":"address[]","name":"","type":"address[]"}],"stateMutability":"view","type":"function"},{"inputs":[],"name":"getSharedFileCount","outputs":[{"internalType":"uint256","name":"","type":"uint256"}],"stateMutability":"view","type":"function"},{"inputs":[],"name":"getSharedFiles","outputs":[{"internalType":"uint256[]","name":"ids","type":"uint256[]"},{"internalType":"string[]","name":"hashes","type":"string[]"},{"internalType":"string[]","name":"names","type":"string[]"},{"internalType":"string[]","name":"types","type":"string[]"},{"internalType":"uint256[]","name":"sizes","type":"uint256[]"},{"internalType":"uint256[]","name":"times","type":"uint256[]"},{"internalType":"address[]","name":"owners","type":"address[]"}],"stateMutability":"view","type":"function"},{"inputs":[],"name":"getUserFileCount","outputs":[{"internalType":"uint256","name":"","type":"uint256"}],"stateMutability":"view","type":"function"},{"inputs":[],"name":"getUserFiles","outputs":[{"internalType":"uint256[]","name":"","type":"uint256[]"}],"stateMutability":"view","type":"function"},{"inputs":[{"internalType":"uint256","name":"_fileId","type":"uint256"},{"internalType":"address","name":"_revokeFrom","type":"address"}],"name":"revokeAccess","outputs":[{"internalType":"bool","name":"","type":"bool"}],"stateMutability":"nonpayable","type":"function"},{"inputs":[{"internalType":"uint256","name":"_fileId","type":"uint256"},{"internalType":"address","name":"_recipient","type":"address"}],"name":"shareFile","outputs":[{"internalType":"bool","name":"","type":"bool"}],"stateMutability":"nonpayable","type":"function"},{"inputs":[{"internalType":"uint256","name":"_fileId","type":"uint256"},{"internalType":"string","name":"_newFileName","type":"string"}],"name":"updateFileName","outputs":[{"internalType":"bool","name":"","type":"bool"}],"stateMutability":"nonpayable","type":"function"},{"inputs":[{"internalType":"string","name":"_fileHash","type":"string"},{"internalType":"string","name":"_fileName","type":"string"},{"internalType":"string","name":"_fileType","type":"string"},{"internalType":"uint256","name":"_fileSize","type":"uint256"}],"name":"uploadFile","outputs":[{"internalType":"uint256","name":"","type":"uint256"}],"stateMutability":"nonpayable","type":"function"}],"evm":{"bytecode":{"linkReferences":{},"object":"608060405234801561001057600080fd5b50612dc7806100206000396000f3fe608060405234801561001057600080fd5b50600436106100f55760003560e01c8063914e314411610097578063d9a5ec1b11610066578063d9a5ec1b146102ce578063dd40298b146102fe578063f4c714b41461032e578063fe8712e714610363576100f5565b8063914e31441461021a578063aaccd05a1461023e578063c5b420061461026e578063d13c87031461029e576100f5565b80632fe61ff6116100d35780632fe61ff61461016c578063439535191461019c57806348fe465a146101ba5780636ccc20f0146101ea576100f5565b80630fb10631146100fa57806311942989146101305780631596f1c51461014e575b600080fd5b610114600480360381019061010f9190611cc4565b610381565b6040516101279796959493929190611dec565b60405180910390f35b6101386105ca565b6040516101459190611f2e565b60405180910390f35b61015661065f565b6040516101639190611f50565b60405180910390f35b61018660048036038101906101819190611cc4565b6106a9565b6040516101939190611f6b565b60405180910390f35b6101a46106e4565b6040516101b19190611f50565b60405180910390f35b6101d460048036038101906101cf9190611cc4565b6106ea565b6040516101e19190612044565b60405180910390f35b61020460048036038101906101ff919061219b565b6107e3565b6040516102119190611f50565b60405180910390f35b6102226109dd565b6040516102359796959493929190612362565b60405180910390f35b6102586004803603810190610253919061242e565b610fea565b6040516102659190611f6b565b60405180910390f35b61028860048036038101906102839190611cc4565b611326565b6040516102959190611f6b565b60405180910390f35b6102b860048036038101906102b3919061242e565b6114dd565b6040516102c59190611f6b565b60405180910390f35b6102e860048036038101906102e3919061242e565b6115b4565b6040516102f59190611f6b565b60405180910390f35b6103186004803603810190610313919061246e565b611922565b6040516103259190611f6b565b60405180910390f35b61034860048036038101906103439190611cc4565b611a3c565b60405161035a969594939291906124ca565b60405180910390f35b61036b611c30565b6040516103789190611f50565b60405180910390f35b60608060606000806000806000600160008a8152602001908152602001600020905060006103af8a336114dd565b90506000816103cd576040518060200160405280600081525061045b565b8260000180546103dc9061256f565b80601f01602080910402602001604051908101604052809291908181526020018280546104089061256f565b80156104555780601f1061042a57610100808354040283529160200191610455565b820191906000526020600020905b81548152906001019060200180831161043857829003601f168201915b50505050505b9050808360010184600201856003015486600401548760050160009054906101000a900473ffffffffffffffffffffffffffffffffffffffff16878580546104a29061256f565b80601f01602080910402602001604051908101604052809291908181526020018280546104ce9061256f565b801561051b5780601f106104f05761010080835404028352916020019161051b565b820191906000526020600020905b8154815290600101906020018083116104fe57829003601f168201915b5050505050955084805461052e9061256f565b80601f016020809104026020016040519081016040528092919081815260200182805461055a9061256f565b80156105a75780601f1061057c576101008083540402835291602001916105a7565b820191906000526020600020905b81548152906001019060200180831161058a57829003601f168201915b505050505094509950995099509950995099509950505050919395979092949650565b6060600260003373ffffffffffffffffffffffffffffffffffffffff1673ffffffffffffffffffffffffffffffffffffffff16815260200190815260200160002080548060200260200160405190810160405280929190818152602001828054801561065557602002820191906000526020600020905b815481526020019060010190808311610641575b5050505050905090565b6000600360003373ffffffffffffffffffffffffffffffffffffffff1673ffffffffffffffffffffffffffffffffffffffff16815260200190815260200160002080549050905090565b60008054821080156106dd575060006001600084815260200190815260200160002060010180546106d99061256f565b9050115b9050919050565b60005481565b6060813373ffffffffffffffffffffffffffffffffffffffff166001600083815260200190815260200160002060050160009054906101000a900473ffffffffffffffffffffffffffffffffffffffff1673ffffffffffffffffffffffffffffffffffffffff1614610791576040517f08c379a000000000000000000000000000000000000000000000000000000000815260040161078890612612565b60405180910390fd5b600067ffffffffffffffff8111156107ac576107ab612070565b5b6040519080825280602002602001820160405280156107da5781602001602082028036833780820191505090505b50915050919050565b600080855111610828576040517f08c379a000000000000000000000000000000000000000000000000000000000815260040161081f9061267e565b60405180910390fd5b600084511161086c576040517f08c379a0000000000000000000000000000000000000000000000000000000008152600401610863906126ea565b60405180910390fd5b60008054905060006001600083815260200190815260200160002090508681600001908161089a91906128b6565b50858160010190816108ac91906128b6565b50848160020190816108be91906128b6565b50838160030181905550428160040181905550338160050160006101000a81548173ffffffffffffffffffffffffffffffffffffffff021916908373ffffffffffffffffffffffffffffffffffffffff160217905550600260003373ffffffffffffffffffffffffffffffffffffffff1673ffffffffffffffffffffffffffffffffffffffff16815260200190815260200160002082908060018154018082558091505060019003906000526020600020016000909190919091505560008081548092919061098c906129b7565b91905055507f32053c383fd6698497d9573f793a7ae108c26edad036e5bb6f6e0e6b95c47e3282888887336040516109c89594939291906129ff565b60405180910390a18192505050949350505050565b60608060608060608060606000600360003373ffffffffffffffffffffffffffffffffffffffff1673ffffffffffffffffffffffffffffffffffffffff168152602001908152602001600020805480602002602001604051908101604052809291908181526020018280548015610a7357602002820191906000526020600020905b815481526020019060010190808311610a5f575b505050505090506000815167ffffffffffffffff811115610a9757610a96612070565b5b604051908082528060200260200182016040528015610aca57816020015b6060815260200190600190039081610ab55790505b5090506000825167ffffffffffffffff811115610aea57610ae9612070565b5b604051908082528060200260200182016040528015610b1d57816020015b6060815260200190600190039081610b085790505b5090506000835167ffffffffffffffff811115610b3d57610b3c612070565b5b604051908082528060200260200182016040528015610b7057816020015b6060815260200190600190039081610b5b5790505b5090506000845167ffffffffffffffff811115610b9057610b8f612070565b5b604051908082528060200260200182016040528015610bbe5781602001602082028036833780820191505090505b5090506000855167ffffffffffffffff811115610bde57610bdd612070565b5b604051908082528060200260200182016040528015610c0c5781602001602082028036833780820191505090505b5090506000865167ffffffffffffffff811115610c2c57610c2b612070565b5b604051908082528060200260200182016040528015610c5a5781602001602082028036833780820191505090505b50905060005b8751811015610fc4576000888281518110610c7e57610c7d612a60565b5b6020026020010151905060006001600083815260200190815260200160002090508060060160003373ffffffffffffffffffffffffffffffffffffffff1673ffffffffffffffffffffffffffffffffffffffff16815260200190815260200160002060009054906101000a900460ff1615610faf57806000018054610d029061256f565b80601f0160208091040260200160405190810160405280929190818152602001828054610d2e9061256f565b8015610d7b5780601f10610d5057610100808354040283529160200191610d7b565b820191906000526020600020905b815481529060010190602001808311610d5e57829003601f168201915b5050505050898481518110610d9357610d92612a60565b5b6020026020010181905250806001018054610dad9061256f565b80601f0160208091040260200160405190810160405280929190818152602001828054610dd99061256f565b8015610e265780601f10610dfb57610100808354040283529160200191610e26565b820191906000526020600020905b815481529060010190602001808311610e0957829003601f168201915b5050505050888481518110610e3e57610e3d612a60565b5b6020026020010181905250806002018054610e589061256f565b80601f0160208091040260200160405190810160405280929190818152602001828054610e849061256f565b8015610ed15780601f10610ea657610100808354040283529160200191610ed1565b820191906000526020600020905b815481529060010190602001808311610eb457829003601f168201915b5050505050878481518110610ee957610ee8612a60565b5b60200260200101819052508060030154868481518110610f0c57610f0b612a60565b5b6020026020010181815250508060040154858481518110610f3057610f2f612a60565b5b6020026020010181815250508060050160009054906101000a900473ffffffffffffffffffffffffffffffffffffffff16848481518110610f7457610f73612a60565b5b602002602001019073ffffffffffffffffffffffffffffffffffffffff16908173ffffffffffffffffffffffffffffffffffffffff16815250505b50508080610fbc906129b7565b915050610c60565b50868686868686869d509d509d509d509d509d509d505050505050505090919293949596565b6000823373ffffffffffffffffffffffffffffffffffffffff166001600083815260200190815260200160002060050160009054906101000a900473ffffffffffffffffffffffffffffffffffffffff1673ffffffffffffffffffffffffffffffffffffffff1614611091576040517f08c379a000000000000000000000000000000000000000000000000000000000815260040161108890612612565b60405180910390fd5b600073ffffffffffffffffffffffffffffffffffffffff168373ffffffffffffffffffffffffffffffffffffffff1603611100576040517f08c379a00000000000000000000000000000000000000000000000000000000081526004016110f790612adb565b60405180910390fd5b3373ffffffffffffffffffffffffffffffffffffffff168373ffffffffffffffffffffffffffffffffffffffff160361116e576040517f08c379a000000000000000000000000000000000000000000000000000000000815260040161116590612b47565b60405180910390fd5b6001600085815260200190815260200160002060060160008473ffffffffffffffffffffffffffffffffffffffff1673ffffffffffffffffffffffffffffffffffffffff16815260200190815260200160002060009054906101000a900460ff161561120f576040517f08c379a000000000000000000000000000000000000000000000000000000000815260040161120690612bd9565b60405180910390fd5b600180600086815260200190815260200160002060060160008573ffffffffffffffffffffffffffffffffffffffff1673ffffffffffffffffffffffffffffffffffffffff16815260200190815260200160002060006101000a81548160ff021916908315150217905550600360008473ffffffffffffffffffffffffffffffffffffffff1673ffffffffffffffffffffffffffffffffffffffff1681526020019081526020016000208490806001815401808255809150506001900390600052602060002001600090919091909150557f1890daecbaaed994febade91e0d69b42771b5ea8e832a96f28d0538a80a15dbe84338560405161131393929190612bf9565b60405180910390a1600191505092915050565b6000813373ffffffffffffffffffffffffffffffffffffffff166001600083815260200190815260200160002060050160009054906101000a900473ffffffffffffffffffffffffffffffffffffffff1673ffffffffffffffffffffffffffffffffffffffff16146113cd576040517f08c379a00000000000000000000000000000000000000000000000000000000081526004016113c490612612565b60405180910390fd5b6000600260003373ffffffffffffffffffffffffffffffffffffffff1673ffffffffffffffffffffffffffffffffffffffff168152602001908152602001600020905060005b81805490508110156114d1578482828154811061143357611432612a60565b5b9060005260206000200154036114be5781600183805490506114559190612c30565b8154811061146657611465612a60565b5b906000526020600020015482828154811061148457611483612a60565b5b9060005260206000200181905550818054806114a3576114a2612c64565b5b600190038181906000526020600020016000905590556114d1565b80806114c9906129b7565b915050611413565b50600192505050919050565b60008173ffffffffffffffffffffffffffffffffffffffff166001600085815260200190815260200160002060050160009054906101000a900473ffffffffffffffffffffffffffffffffffffffff1673ffffffffffffffffffffffffffffffffffffffff1614806115ac57506001600084815260200190815260200160002060060160008373ffffffffffffffffffffffffffffffffffffffff1673ffffffffffffffffffffffffffffffffffffffff16815260200190815260200160002060009054906101000a900460ff165b905092915050565b6000823373ffffffffffffffffffffffffffffffffffffffff166001600083815260200190815260200160002060050160009054906101000a900473ffffffffffffffffffffffffffffffffffffffff1673ffffffffffffffffffffffffffffffffffffffff161461165b576040517f08c379a000000000000000000000000000000000000000000000000000000000815260040161165290612612565b60405180910390fd5b600073ffffffffffffffffffffffffffffffffffffffff168373ffffffffffffffffffffffffffffffffffffffff16036116ca576040517f08c379a00000000000000000000000000000000000000000000000000000000081526004016116c190612cdf565b60405180910390fd5b6001600085815260200190815260200160002060060160008473ffffffffffffffffffffffffffffffffffffffff1673ffffffffffffffffffffffffffffffffffffffff16815260200190815260200160002060009054906101000a900460ff1661176a576040517f08c379a000000000000000000000000000000000000000000000000000000000815260040161176190612d71565b60405180910390fd5b60006001600086815260200190815260200160002060060160008573ffffffffffffffffffffffffffffffffffffffff1673ffffffffffffffffffffffffffffffffffffffff16815260200190815260200160002060006101000a81548160ff0219169083151502179055506000600360008573ffffffffffffffffffffffffffffffffffffffff1673ffffffffffffffffffffffffffffffffffffffff168152602001908152602001600020905060005b81805490508110156118da578582828154811061183c5761183b612a60565b5b9060005260206000200154036118c757816001838054905061185e9190612c30565b8154811061186f5761186e612a60565b5b906000526020600020015482828154811061188d5761188c612a60565b5b9060005260206000200181905550818054806118ac576118ab612c64565b5b600190038181906000526020600020016000905590556118da565b80806118d2906129b7565b91505061181c565b507fa44e6d49c6e8e4b86891bc6076a2a9c460b67cc72efe9b5487e3bb5b0497aabf85338660405161190e93929190612bf9565b60405180910390a160019250505092915050565b6000823373ffffffffffffffffffffffffffffffffffffffff166001600083815260200190815260200160002060050160009054906101000a900473ffffffffffffffffffffffffffffffffffffffff1673ffffffffffffffffffffffffffffffffffffffff16146119c9576040517f08c379a00000000000000000000000000000000000000000000000000000000081526004016119c090612612565b60405180910390fd5b6000835111611a0d576040517f08c379a0000000000000000000000000000000000000000000000000000000008152600401611a04906126ea565b60405180910390fd5b82600160008681526020019081526020016000206001019081611a3091906128b6565b50600191505092915050565b6001602052806000526040600020600091509050806000018054611a5f9061256f565b80601f0160208091040260200160405190810160405280929190818152602001828054611a8b9061256f565b8015611ad85780601f10611aad57610100808354040283529160200191611ad8565b820191906000526020600020905b815481529060010190602001808311611abb57829003601f168201915b505050505090806001018054611aed9061256f565b80601f0160208091040260200160405190810160405280929190818152602001828054611b199061256f565b8015611b665780601f10611b3b57610100808354040283529160200191611b66565b820191906000526020600020905b815481529060010190602001808311611b4957829003601f168201915b505050505090806002018054611b7b9061256f565b80601f0160208091040260200160405190810160405280929190818152602001828054611ba79061256f565b8015611bf45780601f10611bc957610100808354040283529160200191611bf4565b820191906000526020600020905b815481529060010190602001808311611bd757829003601f168201915b5050505050908060030154908060040154908060050160009054906101000a900473ffffffffffffffffffffffffffffffffffffffff16905086565b6000600260003373ffffffffffffffffffffffffffffffffffffffff1673ffffffffffffffffffffffffffffffffffffffff16815260200190815260200160002080549050905090565b6000604051905090565b600080fd5b600080fd5b6000819050919050565b611ca181611c8e565b8114611cac57600080fd5b50565b600081359050611cbe81611c98565b92915050565b600060208284031215611cda57611cd9611c84565b5b6000611ce884828501611caf565b91505092915050565b600081519050919050565b600082825260208201905092915050565b60005b83811015611d2b578082015181840152602081019050611d10565b60008484015250505050565b6000601f19601f8301169050919050565b6000611d5382611cf1565b611d5d8185611cfc565b9350611d6d818560208601611d0d565b611d7681611d37565b840191505092915050565b611d8a81611c8e565b82525050565b600073ffffffffffffffffffffffffffffffffffffffff82169050919050565b6000611dbb82611d90565b9050919050565b611dcb81611db0565b82525050565b60008115159050919050565b611de681611dd1565b82525050565b600060e0820190508181036000830152611e06818a611d48565b90508181036020830152611e1a8189611d48565b90508181036040830152611e2e8188611d48565b9050611e3d6060830187611d81565b611e4a6080830186611d81565b611e5760a0830185611dc2565b611e6460c0830184611ddd565b98975050505050505050565b600081519050919050565b600082825260208201905092915050565b6000819050602082019050919050565b611ea581611c8e565b82525050565b6000611eb78383611e9c565b60208301905092915050565b6000602082019050919050565b6000611edb82611e70565b611ee58185611e7b565b9350611ef083611e8c565b8060005b83811015611f21578151611f088882611eab565b9750611f1383611ec3565b925050600181019050611ef4565b5085935050505092915050565b60006020820190508181036000830152611f488184611ed0565b905092915050565b6000602082019050611f656000830184611d81565b92915050565b6000602082019050611f806000830184611ddd565b92915050565b600081519050919050565b600082825260208201905092915050565b6000819050602082019050919050565b611fbb81611db0565b82525050565b6000611fcd8383611fb2565b60208301905092915050565b6000602082019050919050565b6000611ff182611f86565b611ffb8185611f91565b935061200683611fa2565b8060005b8381101561203757815161201e8882611fc1565b975061202983611fd9565b92505060018101905061200a565b5085935050505092915050565b6000602082019050818103600083015261205e8184611fe6565b905092915050565b600080fd5b600080fd5b7f4e487b7100000000000000000000000000000000000000000000000000000000600052604160045260246000fd5b6120a882611d37565b810181811067ffffffffffffffff821117156120c7576120c6612070565b5b80604052505050565b60006120da611c7a565b90506120e6828261209f565b919050565b600067ffffffffffffffff82111561210657612105612070565b5b61210f82611d37565b9050602081019050919050565b82818337600083830152505050565b600061213e612139846120eb565b6120d0565b90508281526020810184848401111561215a5761215961206b565b5b61216584828561211c565b509392505050565b600082601f83011261218257612181612066565b5b813561219284826020860161212b565b91505092915050565b600080600080608085870312156121b5576121b4611c84565b5b600085013567ffffffffffffffff8111156121d3576121d2611c89565b5b6121df8782880161216d565b945050602085013567ffffffffffffffff811115612200576121ff611c89565b5b61220c8782880161216d565b935050604085013567ffffffffffffffff81111561222d5761222c611c89565b5b6122398782880161216d565b925050606061224a87828801611caf565b91505092959194509250565b600081519050919050565b600082825260208201905092915050565b6000819050602082019050919050565b600082825260208201905092915050565b600061229e82611cf1565b6122a88185612282565b93506122b8818560208601611d0d565b6122c181611d37565b840191505092915050565b60006122d88383612293565b905092915050565b6000602082019050919050565b60006122f882612256565b6123028185612261565b93508360208202850161231485612272565b8060005b85811015612350578484038952815161233185826122cc565b945061233c836122e0565b925060208a01995050600181019050612318565b50829750879550505050505092915050565b600060e082019050818103600083015261237c818a611ed0565b9050818103602083015261239081896122ed565b905081810360408301526123a481886122ed565b905081810360608301526123b881876122ed565b905081810360808301526123cc8186611ed0565b905081810360a08301526123e08185611ed0565b905081810360c08301526123f48184611fe6565b905098975050505050505050565b61240b81611db0565b811461241657600080fd5b50565b60008135905061242881612402565b92915050565b6000806040838503121561244557612444611c84565b5b600061245385828601611caf565b925050602061246485828601612419565b9150509250929050565b6000806040838503121561248557612484611c84565b5b600061249385828601611caf565b925050602083013567ffffffffffffffff8111156124b4576124b3611c89565b5b6124c08582860161216d565b9150509250929050565b600060c08201905081810360008301526124e48189611d48565b905081810360208301526124f88188611d48565b9050818103604083015261250c8187611d48565b905061251b6060830186611d81565b6125286080830185611d81565b61253560a0830184611dc2565b979650505050505050565b7f4e487b7100000000000000000000000000000000000000000000000000000000600052602260045260246000fd5b6000600282049050600182168061258757607f821691505b60208210810361259a57612599612540565b5b50919050565b7f4f6e6c79207468652066696c65206f776e65722063616e20706572666f726d2060008201527f7468697320616374696f6e000000000000000000000000000000000000000000602082015250565b60006125fc602b83611cfc565b9150612607826125a0565b604082019050919050565b6000602082019050818103600083015261262b816125ef565b9050919050565b7f46696c6520686173682063616e6e6f7420626520656d70747900000000000000600082015250565b6000612668601983611cfc565b915061267382612632565b602082019050919050565b600060208201905081810360008301526126978161265b565b9050919050565b7f46696c65206e616d652063616e6e6f7420626520656d70747900000000000000600082015250565b60006126d4601983611cfc565b91506126df8261269e565b602082019050919050565b60006020820190508181036000830152612703816126c7565b9050919050565b60008190508160005260206000209050919050565b60006020601f8301049050919050565b600082821b905092915050565b60006008830261276c7fffffffffffffffffffffffffffffffffffffffffffffffffffffffffffffffff8261272f565b612776868361272f565b95508019841693508086168417925050509392505050565b6000819050919050565b60006127b36127ae6127a984611c8e565b61278e565b611c8e565b9050919050565b6000819050919050565b6127cd83612798565b6127e16127d9826127ba565b84845461273c565b825550505050565b600090565b6127f66127e9565b6128018184846127c4565b505050565b5b818110156128255761281a6000826127ee565b600181019050612807565b5050565b601f82111561286a5761283b8161270a565b6128448461271f565b81016020851015612853578190505b61286761285f8561271f565b830182612806565b50505b505050565b600082821c905092915050565b600061288d6000198460080261286f565b1980831691505092915050565b60006128a6838361287c565b9150826002028217905092915050565b6128bf82611cf1565b67ffffffffffffffff8111156128d8576128d7612070565b5b6128e2825461256f565b6128ed828285612829565b600060209050601f831160018114612920576000841561290e578287015190505b612918858261289a565b865550612980565b601f19841661292e8661270a565b60005b8281101561295657848901518255600182019150602085019450602081019050612931565b86831015612973578489015161296f601f89168261287c565b8355505b6001600288020188555050505b505050505050565b7f4e487b7100000000000000000000000000000000000000000000000000000000600052601160045260246000fd5b60006129c282611c8e565b91507fffffffffffffffffffffffffffffffffffffffffffffffffffffffffffffffff82036129f4576129f3612988565b5b600182019050919050565b600060a082019050612a146000830188611d81565b8181036020830152612a268187611d48565b90508181036040830152612a3a8186611d48565b9050612a496060830185611d81565b612a566080830184611dc2565b9695505050505050565b7f4e487b7100000000000000000000000000000000000000000000000000000000600052603260045260246000fd5b7f496e76616c696420726563697069656e74206164647265737300000000000000600082015250565b6000612ac5601983611cfc565b9150612ad082612a8f565b602082019050919050565b60006020820190508181036000830152612af481612ab8565b9050919050565b7f43616e6e6f74207368617265207769746820796f757273656c66000000000000600082015250565b6000612b31601a83611cfc565b9150612b3c82612afb565b602082019050919050565b60006020820190508181036000830152612b6081612b24565b9050919050565b7f46696c6520616c7265616479207368617265642077697468207468697320616460008201527f6472657373000000000000000000000000000000000000000000000000000000602082015250565b6000612bc3602583611cfc565b9150612bce82612b67565b604082019050919050565b60006020820190508181036000830152612bf281612bb6565b9050919050565b6000606082019050612c0e6000830186611d81565b612c1b6020830185611dc2565b612c286040830184611dc2565b949350505050565b6000612c3b82611c8e565b9150612c4683611c8e565b9250828203905081811115612c5e57612c5d612988565b5b92915050565b7f4e487b7100000000000000000000000000000000000000000000000000000000600052603160045260246000fd5b7f496e76616c696420616464726573730000000000000000000000000000000000600082015250565b6000612cc9600f83611cfc565b9150612cd482612c93565b602082019050919050565b60006020820190508181036000830152612cf881612cbc565b9050919050565b7f46696c65206e6f7420736861726564207769746820746869732061646472657360008201527f7300000000000000000000000000000000000000000000000000000000000000602082015250565b6000612d5b602183611cfc565b9150612d6682612cff565b604082019050919050565b60006020820190508181036000830152612d8a81612d4e565b905091905056fea26469706673582212203340ad635acb7bd81c76e67fb3a1097bb6a9c4523799b4a365d9aafbbe7b936764736f6c63430008130033","opcodes":"PUSH1 0x80 PUSH1 0x40 MSTORE CALLVALUE DUP1 ISZERO PUSH2 0x10 JUMPI PUSH1 0x0 DUP1 REVERT JUMPDEST POP PUSH2 0x2DC7 DUP1 PUSH2 0x20 PUSH1 0x0 CODECOPY PUSH1 0x0 RETURN INVALID PUSH1 0x80 PUSH1 0x40 MSTORE CALLVALUE DUP1 ISZERO PUSH2 0x10 JUMPI PUSH1 0x0 DUP1 REVERT JUMPDEST POP PUSH1 0x4 CALLDATASIZE LT PUSH2 0xF5 JUMPI PUSH1 0x0 CALLDATALOAD PUSH1 0xE0 SHR DUP1 PUSH4 0x914E3144 GT PUSH2 0x97 JUMPI DUP1 PUSH4 0xD9A5EC1B GT PUSH2 0x66 JUMPI DUP1 PUSH4 0xD9A5EC1B EQ PUSH2 0x2CE JUMPI DUP1 PUSH4 0xDD40298B EQ PUSH2 0x2FE JUMPI DUP1 PUSH4 0xF4C714B4 EQ PUSH2 0x32E JUMPI DUP1 PUSH4 0xFE8712E7 EQ PUSH2 0x363 JUMPI PUSH2 0xF5 JUMP JUMPDEST DUP1 PUSH4 0x914E3144 EQ PUSH2 0x21A JUMPI DUP1 PUSH4 0xAACCD05A EQ PUSH2 0x23E JUMPI DUP1 PUSH4 0xC5B42006 EQ PUSH2 0x26E JUMPI DUP1 PUSH4 0xD13C8703 EQ PUSH2 0x29E JUMPI PUSH2 0xF5 JUMP JUMPDEST DUP1 PUSH4 0x2FE61FF6 GT PUSH2 0xD3 JUMPI DUP1 PUSH4 0x2FE61FF6 EQ PUSH2 0x16C JUMPI DUP1 PUSH4 0x43953519 EQ PUSH2 0x19C JUMPI DUP1 PUSH4 0x48FE465A EQ PUSH2 0x1BA JUMPI DUP1 PUSH4 0x6CCC20F0 EQ PUSH2 0x1EA JUMPI PUSH2 0xF5 JUMP JUMPDEST DUP1 PUSH4 0xFB10631 EQ PUSH2 0xFA JUMPI DUP1 PUSH4 0x11942989 EQ PUSH2 0x130 JUMPI DUP1 PUSH4 0x1596F1C5 EQ PUSH2 0x14E JUMPI JUMPDEST PUSH1 0x0 DUP1 REVERT JUMPDEST PUSH2 0x114 PUSH1 0x4 DUP1 CALLDATASIZE SUB DUP2 ADD SWAP1 PUSH2 0x10F SWAP2 SWAP1 PUSH2 0x1CC4 JUMP JUMPDEST PUSH2 0x381 JUMP JUMPDEST PUSH1 0x40 MLOAD PUSH2 0x127 SWAP8 SWAP7 SWAP6 SWAP5 SWAP4 SWAP3 SWAP2 SWAP1 PUSH2 0x1DEC JUMP JUMPDEST PUSH1 0x40 MLOAD DUP1 SWAP2 SUB SWAP1 RETURN JUMPDEST PUSH2 0x138 PUSH2 0x5CA JUMP JUMPDEST PUSH1 0x40 MLOAD PUSH2 0x145 SWAP2 SWAP1 PUSH2 0x1F2E JUMP JUMPDEST PUSH1 0x40 MLOAD DUP1 SWAP2 SUB SWAP1 RETURN JUMPDEST PUSH2 0x156 PUSH2 0x65F JUMP JUMPDEST PUSH1 0x40 MLOAD PUSH2 0x163 SWAP2 SWAP1 PUSH2 0x1F50 JUMP JUMPDEST PUSH1 0x40 MLOAD DUP1 SWAP2 SUB SWAP1 RETURN JUMPDEST PUSH2 0x186 PUSH1 0x4 DUP1 CALLDATASIZE SUB DUP2 ADD SWAP1 PUSH2 0x181 SWAP2 SWAP1 PUSH2 0x1CC4 JUMP JUMPDEST PUSH2 0x6A9 JUMP JUMPDEST PUSH1 0x40 MLOAD PUSH2 0x193 SWAP2 SWAP1 PUSH2 0x1F6B JUMP JUMPDEST PUSH1 0x40 MLOAD DUP1 SWAP2 SUB SWAP1 RETURN JUMPDEST PUSH2 0x1A4 PUSH2 0x6E4 JUMP JUMPDEST PUSH1 0x40 MLOAD PUSH2 0x1B1 SWAP2 SWAP1 PUSH2 0x1F50 JUMP JUMPDEST PUSH1 0x40 MLOAD DUP1 SWAP2 SUB SWAP1 RETURN JUMPDEST PUSH2 0x1D4 PUSH1 0x4 DUP1 CALLDATASIZE SUB DUP2 ADD SWAP1 PUSH2 0x1CF SWAP2 SWAP1 PUSH2 0x1CC4 JUMP JUMPDEST PUSH2 0x6EA JUMP JUMPDEST PUSH1 0x40 MLOAD PUSH2 0x1E1 SWAP2 SWAP1 PUSH2 0x2044 JUMP JUMPDEST PUSH1 0x40 MLOAD DUP1 SWAP2 SUB SWAP1 RETURN JUMPDEST PUSH2 0x204 PUSH1 0x4 DUP1 CALLDATASIZE SUB DUP2 ADD SWAP1 PUSH2 0x1FF SWAP2 SWAP1 PUSH2 0x219B JUMP JUMPDEST PUSH2 0x7E3 JUMP JUMPDEST PUSH1 0x40 MLOAD PUSH2 0x211 SWAP2 SWAP1 PUSH2 0x1F50 JUMP JUMPDEST PUSH1 0x40 MLOAD DUP1 SWAP2 SUB SWAP1 RETURN JUMPDEST PUSH2 0x222 PUSH2 0x9DD JUMP JUMPDEST PUSH1 0x40 MLOAD PUSH2 0x235 SWAP8 SWAP7 SWAP6 SWAP5 SWAP4 SWAP3 SWAP2 SWAP1 PUSH2 0x2362 JUMP JUMPDEST PUSH1 0x40 MLOAD DUP1 SWAP2 SUB SWAP1 RETURN JUMPDEST PUSH2 0x258 PUSH1 0x4 DUP1 CALLDATASIZE SUB DUP2 ADD SWAP1 PUSH2 0x253 SWAP2 SWAP1 PUSH2 0x242E JUMP JUMPDEST PUSH2 0xFEA JUMP JUMPDEST PUSH1 0x40 MLOAD PUSH2 0x265 SWAP2 SWAP1 PUSH2 0x1F6B JUMP JUMPDEST PUSH1 0x40 MLOAD DUP1 SWAP2 SUB SWAP1 RETURN JUMPDEST PUSH2 0x288 PUSH1 0x4 DUP1 CALLDATASIZE SUB DUP2 ADD SWAP1 PUSH2 0x283 SWAP2 SWAP1 PUSH2 0x1CC4 JUMP JUMPDEST PUSH2 0x1326 JUMP JUMPDEST PUSH1 0x40 MLOAD PUSH2 0x295 SWAP2 SWAP1 PUSH2 0x1F6B JUMP JUMPDEST PUSH1 0x40 MLOAD DUP1 SWAP2 SUB SWAP1 RETURN JUMPDEST PUSH2 0x2B8 PUSH1 0x4 DUP1 CALLDATASIZE SUB DUP2 ADD SWAP1 PUSH2 0x2B3 SWAP2 SWAP1 PUSH2 0x242E JUMP JUMPDEST PUSH2 0x14DD JUMP JUMPDEST PUSH1 0x40 MLOAD PUSH2 0x2C5 SWAP2 SWAP1 PUSH2 0x1F6B JUMP JUMPDEST PUSH1 0x40 MLOAD DUP1 SWAP2 SUB SWAP1 RETURN JUMPDEST PUSH2 0x2E8 PUSH1 0x4 DUP1 CALLDATASIZE SUB DUP2 ADD SWAP1 PUSH2 0x2E3 SWAP2 SWAP1 PUSH2 0x242E JUMP JUMPDEST PUSH2 0x15B4 JUMP JUMPDEST PUSH1 0x40 MLOAD PUSH2 0x2F5 SWAP2 SWAP1 PUSH2 0x1F6B JUMP JUMPDEST PUSH1 0x40 MLOAD DUP1 SWAP2 SUB SWAP1 RETURN JUMPDEST PUSH2 0x318 PUSH1 0x4 DUP1 CALLDATASIZE SUB DUP2 ADD SWAP1 PUSH2 0x313 SWAP2 SWAP1 PUSH2 0x246E JUMP JUMPDEST PUSH2 0x1922 JUMP JUMPDEST PUSH1 0x40 MLOAD PUSH2 0x325 SWAP2 SWAP1 PUSH2 0x1F6B JUMP JUMPDEST PUSH1 0x40 MLOAD DUP1 SWAP2 SUB SWAP1 RETURN JUMPDEST PUSH2 0x348 PUSH1 0x4 DUP1 CALLDATASIZE SUB DUP2 ADD SWAP1 PUSH2 0x343 SWAP2 SWAP1 PUSH2 0x1CC4 JUMP JUMPDEST PUSH2 0x1A3C JUMP JUMPDEST PUSH1 0x40 MLOAD PUSH2 0x35A SWAP7 SWAP6 SWAP5 SWAP4 SWAP3 SWAP2 SWAP1 PUSH2 0x24CA JUMP JUMPDEST PUSH1 0x40 MLOAD DUP1 SWAP2 SUB SWAP1 RETURN JUMPDEST PUSH2 0x36B PUSH2 0x1C30 JUMP JUMPDEST PUSH1 0x40 MLOAD PUSH2 0x378 SWAP2 SWAP1 PUSH2 0x1F50 JUMP JUMPDEST PUSH1 0x40 MLOAD DUP1 SWAP2 SUB SWAP1 RETURN JUMPDEST PUSH1 0x60 DUP1 PUSH1 0x60 PUSH1 0x0 DUP1 PUSH1 0x0 DUP1 PUSH1 0x0 PUSH1 0x1 PUSH1 0x0 DUP11 DUP2 MSTORE PUSH1 0x20 ADD SWAP1 DUP2 MSTORE PUSH1 0x20 ADD PUSH1 0x0 KECCAK256 SWAP1 POP PUSH1 0x0 PUSH2 0x3AF DUP11 CALLER PUSH2 0x14DD JUMP JUMPDEST SWAP1 POP PUSH1 0x0 DUP2 PUSH2 0x3CD JUMPI PUSH1 0x40 MLOAD DUP1 PUSH1 0x20 ADD PUSH1 0x40 MSTORE DUP1 PUSH1 0x0 DUP2 MSTORE POP PUSH2 0x45B JUMP JUMPDEST DUP3 PUSH1 0x0 ADD DUP1 SLOAD PUSH2 0x3DC SWAP1 PUSH2 0x256F JUMP JUMPDEST DUP1 PUSH1 0x1F ADD PUSH1 0x20 DUP1 SWAP2 DIV MUL PUSH1 0x20 ADD PUSH1 0x40 MLOAD SWAP1 DUP2 ADD PUSH1 0x40 MSTORE DUP1 SWAP3 SWAP2 SWAP1 DUP2 DUP2 MSTORE PUSH1 0x20 ADD DUP3 DUP1 SLOAD PUSH2 0x408 SWAP1 PUSH2 0x256F JUMP JUMPDEST DUP1 ISZERO PUSH2 0x455 JUMPI DUP1 PUSH1 0x1F LT PUSH2 0x42A JUMPI PUSH2 0x100 DUP1 DUP4 SLOAD DIV MUL DUP4 MSTORE SWAP2 PUSH1 0x20 ADD SWAP2 PUSH2 0x455 JUMP JUMPDEST DUP3 ADD SWAP2 SWAP1 PUSH1 0x0 MSTORE PUSH1 0x20 PUSH1 0x0 KECCAK256 SWAP1 JUMPDEST DUP2 SLOAD DUP2 MSTORE SWAP1 PUSH1 0x1 ADD SWAP1 PUSH1 0x20 ADD DUP1 DUP4 GT PUSH2 0x438 JUMPI DUP3 SWAP1 SUB PUSH1 0x1F AND DUP3 ADD SWAP2 JUMPDEST POP POP POP POP POP JUMPDEST SWAP1 POP DUP1 DUP4 PUSH1 0x1 ADD DUP5 PUSH1 0x2 ADD DUP6 PUSH1 0x3 ADD SLOAD DUP7 PUSH1 0x4 ADD SLOAD DUP8 PUSH1 0x5 ADD PUSH1 0x0 SWAP1 SLOAD SWAP1 PUSH2 0x100 EXP SWAP1 DIV PUSH20 0xFFFFFFFFFFFFFFFFFFFFFFFFFFFFFFFFFFFFFFFF AND DUP8 DUP6 DUP1 SLOAD PUSH2 0x4A2 SWAP1 PUSH2 0x256F JUMP JUMPDEST DUP1 PUSH1 0x1F ADD PUSH1 0x20 DUP1 SWAP2 DIV MUL PUSH1 0x20 ADD PUSH1 0x40 MLOAD SWAP1 DUP2 ADD PUSH1 0x40 MSTORE DUP1 SWAP3 SWAP2 SWAP1 DUP2 DUP2 MSTORE PUSH1 0x20 ADD DUP3 DUP1 SLOAD PUSH2 0x4CE SWAP1 PUSH2 0x256F JUMP JUMPDEST DUP1 ISZERO PUSH2 0x51B JUMPI DUP1 PUSH1 0x1F LT PUSH2 0x4F0 JUMPI PUSH2 0x100 DUP1 DUP4 SLOAD DIV MUL DUP4 MSTORE SWAP2 PUSH1 0x20 ADD SWAP2 PUSH2 0x51B JUMP JUMPDEST DUP3 ADD SWAP2 SWAP1 PUSH1 0x0 MSTORE PUSH1 0x20 PUSH1 0x0 KECCAK256 SWAP1 JUMPDEST DUP2 SLOAD DUP2 MSTORE SWAP1 PUSH1 0x1 ADD SWAP1 PUSH1 0x20 ADD DUP1 DUP4 GT PUSH2 0x4FE JUMPI DUP3 SWAP1 SUB PUSH1 0x1F AND DUP3 ADD SWAP2 JUMPDEST POP POP POP POP POP SWAP6 POP DUP5 DUP1 SLOAD PUSH2 0x52E SWAP1 PUSH2 0x256F JUMP JUMPDEST DUP1 PUSH1 0x1F ADD PUSH1 0x20 DUP1 SWAP2 DIV MUL PUSH1 0x20 ADD PUSH1 0x40 MLOAD SWAP1 DUP2 ADD PUSH1 0x40 MSTORE DUP1 SWAP3 SWAP2 SWAP1 DUP2 DUP2 MSTORE PUSH1 0x20 ADD DUP3 DUP1 SLOAD PUSH2 0x55A SWAP1 PUSH2 0x256F JUMP JUMPDEST DUP1 ISZERO PUSH2 0x5A7 JUMPI DUP1 PUSH1 0x1F LT PUSH2 0x57C JUMPI PUSH2 0x100 DUP1 DUP4 SLOAD DIV MUL DUP4 MSTORE SWAP2 PUSH1 0x20 ADD SWAP2 PUSH2 0x5A7 JUMP JUMPDEST DUP3 ADD SWAP2 SWAP1 PUSH1 0x0 MSTORE PUSH1 0x20 PUSH1 0x0 KECCAK256 SWAP1 JUMPDEST DUP2 SLOAD DUP2 MSTORE SWAP1 PUSH1 0x1 ADD SWAP1 PUSH1 0x20 ADD DUP1 DUP4 GT PUSH2 0x58A JUMPI DUP3 SWAP1 SUB PUSH1 0x1F AND DUP3 ADD SWAP2 JUMPDEST POP POP POP POP POP SWAP5 POP SWAP10 POP SWAP10 POP SWAP10 POP SWAP10 POP SWAP10 POP SWAP10 POP SWAP10 POP POP POP POP SWAP2 SWAP4 SWAP6 SWAP8 SWAP1 SWAP3 SWAP5 SWAP7 POP JUMP JUMPDEST PUSH1 0x60 PUSH1 0x2 PUSH1 0x0 CALLER PUSH20 0xFFFFFFFFFFFFFFFFFFFFFFFFFFFFFFFFFFFFFFFF AND PUSH20 0xFFFFFFFFFFFFFFFFFFFFFFFFFFFFFFFFFFFFFFFF AND DUP2 MSTORE PUSH1 0x20 ADD SWAP1 DUP2 MSTORE PUSH1 0x20 ADD PUSH1 0x0 KECCAK256 DUP1 SLOAD DUP1 PUSH1 0x20 MUL PUSH1 0x20 ADD PUSH1 0x40 MLOAD SWAP1 DUP2 ADD PUSH1 0x40 MSTORE DUP1 SWAP3 SWAP2 SWAP1 DUP2 DUP2 MSTORE PUSH1 0x20 ADD DUP3 DUP1 SLOAD DUP1 ISZERO PUSH2 0x655 JUMPI PUSH1 0x20 MUL DUP3 ADD SWAP2 SWAP1 PUSH1 0x0 MSTORE PUSH1 0x20 PUSH1 0x0 KECCAK256 SWAP1 JUMPDEST DUP2 SLOAD DUP2 MSTORE PUSH1 0x20 ADD SWAP1 PUSH1 0x1 ADD SWAP1 DUP1 DUP4 GT PUSH2 0x641 JUMPI JUMPDEST POP POP POP POP POP SWAP1 POP SWAP1 JUMP JUMPDEST PUSH1 0x0 PUSH1 0x3 PUSH1 0x0 CALLER PUSH20 0xFFFFFFFFFFFFFFFFFFFFFFFFFFFFFFFFFFFFFFFF AND PUSH20 0xFFFFFFFFFFFFFFFFFFFFFFFFFFFFFFFFFFFFFFFF AND DUP2 MSTORE PUSH1 0x20 ADD SWAP1 DUP2 MSTORE PUSH1 0x20 ADD PUSH1 0x0 KECCAK256 DUP1 SLOAD SWAP1 POP SWAP1 POP SWAP1 JUMP JUMPDEST PUSH1 0x0 DUP1 SLOAD DUP3 LT DUP1 ISZERO PUSH2 0x6DD JUMPI POP PUSH1 0x0 PUSH1 0x1 PUSH1 0x0 DUP5 DUP2 MSTORE PUSH1 0x20 ADD SWAP1 DUP2 MSTORE PUSH1 0x20 ADD PUSH1 0x0 KECCAK256 PUSH1 0x1 ADD DUP1 SLOAD PUSH2 0x6D9 SWAP1 PUSH2 0x256F JUMP JUMPDEST SWAP1 POP GT JUMPDEST SWAP1 POP SWAP2 SWAP1 POP JUMP JUMPDEST PUSH1 0x0 SLOAD DUP2 JUMP JUMPDEST PUSH1 0x60 DUP2 CALLER PUSH20 0xFFFFFFFFFFFFFFFFFFFFFFFFFFFFFFFFFFFFFFFF AND PUSH1 0x1 PUSH1 0x0 DUP4 DUP2 MSTORE PUSH1 0x20 ADD SWAP1 DUP2 MSTORE PUSH1 0x20 ADD PUSH1 0x0 KECCAK256 PUSH1 0x5 ADD PUSH1 0x0 SWAP1 SLOAD SWAP1 PUSH2 0x100 EXP SWAP1 DIV PUSH20 0xFFFFFFFFFFFFFFFFFFFFFFFFFFFFFFFFFFFFFFFF AND PUSH20 0xFFFFFFFFFFFFFFFFFFFFFFFFFFFFFFFFFFFFFFFF AND EQ PUSH2 0x791 JUMPI PUSH1 0x40 MLOAD PUSH32 0x8C379A000000000000000000000000000000000000000000000000000000000 DUP2 MSTORE PUSH1 0x4 ADD PUSH2 0x788 SWAP1 PUSH2 0x2612 JUMP JUMPDEST PUSH1 0x40 MLOAD DUP1 SWAP2 SUB SWAP1 REVERT JUMPDEST PUSH1 0x0 PUSH8 0xFFFFFFFFFFFFFFFF DUP2 GT ISZERO PUSH2 0x7AC JUMPI PUSH2 0x7AB PUSH2 0x2070 JUMP JUMPDEST JUMPDEST PUSH1 0x40 MLOAD SWAP1 DUP1 DUP3 MSTORE DUP1 PUSH1 0x20 MUL PUSH1 0x20 ADD DUP3 ADD PUSH1 0x40 MSTORE DUP1 ISZERO PUSH2 0x7DA JUMPI DUP2 PUSH1 0x20 ADD PUSH1 0x20 DUP3 MUL DUP1 CALLDATASIZE DUP4 CALLDATACOPY DUP1 DUP3 ADD SWAP2 POP POP SWAP1 POP JUMPDEST POP SWAP2 POP POP SWAP2 SWAP1 POP JUMP JUMPDEST PUSH1 0x0 DUP1 DUP6 MLOAD GT PUSH2 0x828 JUMPI PUSH1 0x40 MLOAD PUSH32 0x8C379A000000000000000000000000000000000000000000000000000000000 DUP2 MSTORE PUSH1 0x4 ADD PUSH2 0x81F SWAP1 PUSH2 0x267E JUMP JUMPDEST PUSH1 0x40 MLOAD DUP1 SWAP2 SUB SWAP1 REVERT JUMPDEST PUSH1 0x0 DUP5 MLOAD GT PUSH2 0x86C JUMPI PUSH1 0x40 MLOAD PUSH32 0x8C379A000000000000000000000000000000000000000000000000000000000 DUP2 MSTORE PUSH1 0x4 ADD PUSH2 0x863 SWAP1 PUSH2 0x26EA JUMP JUMPDEST PUSH1 0x40 MLOAD DUP1 SWAP2 SUB SWAP1 REVERT JUMPDEST PUSH1 0x0 DUP1 SLOAD SWAP1 POP PUSH1 0x0 PUSH1 0x1 PUSH1 0x0 DUP4 DUP2 MSTORE PUSH1 0x20 ADD SWAP1 DUP2 MSTORE PUSH1 0x20 ADD PUSH1 0x0 KECCAK256 SWAP1 POP DUP7 DUP2 PUSH1 0x0 ADD SWAP1 DUP2 PUSH2 0x89A SWAP2 SWAP1 PUSH2 0x28B6 JUMP JUMPDEST POP DUP6 DUP2 PUSH1 0x1 ADD SWAP1 DUP2 PUSH2 0x8AC SWAP2 SWAP1 PUSH2 0x28B6 JUMP JUMPDEST POP DUP5 DUP2 PUSH1 0x2 ADD SWAP1 DUP2 PUSH2 0x8BE SWAP2 SWAP1 PUSH2 0x28B6 JUMP JUMPDEST POP DUP4 DUP2 PUSH1 0x3 ADD DUP2 SWAP1 SSTORE POP TIMESTAMP DUP2 PUSH1 0x4 ADD DUP2 SWAP1 SSTORE POP CALLER DUP2 PUSH1 0x5 ADD PUSH1 0x0 PUSH2 0x100 EXP DUP2 SLOAD DUP2 PUSH20 0xFFFFFFFFFFFFFFFFFFFFFFFFFFFFFFFFFFFFFFFF MUL NOT AND SWAP1 DUP4 PUSH20 0xFFFFFFFFFFFFFFFFFFFFFFFFFFFFFFFFFFFFFFFF AND MUL OR SWAP1 SSTORE POP PUSH1 0x2 PUSH1 0x0 CALLER PUSH20 0xFFFFFFFFFFFFFFFFFFFFFFFFFFFFFFFFFFFFFFFF AND PUSH20 0xFFFFFFFFFFFFFFFFFFFFFFFFFFFFFFFFFFFFFFFF AND DUP2 MSTORE PUSH1 0x20 ADD SWAP1 DUP2 MSTORE PUSH1 0x20 ADD PUSH1 0x0 KECCAK256 DUP3 SWAP1 DUP1 PUSH1 0x1 DUP2 SLOAD ADD DUP1 DUP3 SSTORE DUP1 SWAP2 POP POP PUSH1 0x1 SWAP1 SUB SWAP1 PUSH1 0x0 MSTORE PUSH1 0x20 PUSH1 0x0 KECCAK256 ADD PUSH1 0x0 SWAP1 SWAP2 SWAP1 SWAP2 SWAP1 SWAP2 POP SSTORE PUSH1 0x0 DUP1 DUP2 SLOAD DUP1 SWAP3 SWAP2 SWAP1 PUSH2 0x98C SWAP1 PUSH2 0x29B7 JUMP JUMPDEST SWAP2 SWAP1 POP SSTORE POP PUSH32 0x32053C383FD6698497D9573F793A7AE108C26EDAD036E5BB6F6E0E6B95C47E32 DUP3 DUP9 DUP9 DUP8 CALLER PUSH1 0x40 MLOAD PUSH2 0x9C8 SWAP6 SWAP5 SWAP4 SWAP3 SWAP2 SWAP1 PUSH2 0x29FF JUMP JUMPDEST PUSH1 0x40 MLOAD DUP1 SWAP2 SUB SWAP1 LOG1 DUP2 SWAP3 POP POP POP SWAP5 SWAP4 POP POP POP POP JUMP JUMPDEST PUSH1 0x60 DUP1 PUSH1 0x60 DUP1 PUSH1 0x60 DUP1 PUSH1 0x60 PUSH1 0x0 PUSH1 0x3 PUSH1 0x0 CALLER PUSH20 0xFFFFFFFFFFFFFFFFFFFFFFFFFFFFFFFFFFFFFFFF AND PUSH20 0xFFFFFFFFFFFFFFFFFFFFFFFFFFFFFFFFFFFFFFFF AND DUP2 MSTORE PUSH1 0x20 ADD SWAP1 DUP2 MSTORE PUSH1 0x20 ADD PUSH1 0x0 KECCAK256 DUP1 SLOAD DUP1 PUSH1 0x20 MUL PUSH1 0x20 ADD PUSH1 0x40 MLOAD SWAP1 DUP2 ADD PUSH1 0x40 MSTORE DUP1 SWAP3 SWAP2 SWAP1 DUP2 DUP2 MSTORE PUSH1 0x20 ADD DUP3 DUP1 SLOAD DUP1 ISZERO PUSH2 0xA73 JUMPI PUSH1 0x20 MUL DUP3 ADD SWAP2 SWAP1 PUSH1 0x0 MSTORE PUSH1 0x20 PUSH1 0x0 KECCAK256 SWAP1 JUMPDEST DUP2 SLOAD DUP2 MSTORE PUSH1 0x20 ADD SWAP1 PUSH1 0x1 ADD SWAP1 DUP1 DUP4 GT PUSH2 0xA5F JUMPI JUMPDEST POP POP POP POP POP SWAP1 POP PUSH1 0x0 DUP2 MLOAD PUSH8 0xFFFFFFFFFFFFFFFF DUP2 GT ISZERO PUSH2 0xA97 JUMPI PUSH2 0xA96 PUSH2 0x2070 JUMP JUMPDEST JUMPDEST PUSH1 0x40 MLOAD SWAP1 DUP1 DUP3 MSTORE DUP1 PUSH1 0x20 MUL PUSH1 0x20 ADD DUP3 ADD PUSH1 0x40 MSTORE DUP1 ISZERO PUSH2 0xACA JUMPI DUP2 PUSH1 0x20 ADD JUMPDEST PUSH1 0x60 DUP2 MSTORE PUSH1 0x20 ADD SWAP1 PUSH1 0x1 SWAP1 SUB SWAP1 DUP2 PUSH2 0xAB5 JUMPI SWAP1 POP JUMPDEST POP SWAP1 POP PUSH1 0x0 DUP3 MLOAD PUSH8 0xFFFFFFFFFFFFFFFF DUP2 GT ISZERO PUSH2 0xAEA JUMPI PUSH2 0xAE9 PUSH2 0x2070 JUMP JUMPDEST JUMPDEST PUSH1 0x40 MLOAD SWAP1 DUP1 DUP3 MSTORE DUP1 PUSH1 0x20 MUL PUSH1 0x20 ADD DUP3 ADD PUSH1 0x40 MSTORE DUP1 ISZERO PUSH2 0xB1D JUMPI DUP2 PUSH1 0x20 ADD JUMPDEST PUSH1 0x60 DUP2 MSTORE PUSH1 0x20 ADD SWAP1 PUSH1 0x1 SWAP1 SUB SWAP1 DUP2 PUSH2 0xB08 JUMPI SWAP1 POP JUMPDEST POP SWAP1 POP PUSH1 0x0 DUP4 MLOAD PUSH8 0xFFFFFFFFFFFFFFFF DUP2 GT ISZERO PUSH2 0xB3D JUMPI PUSH2 0xB3C PUSH2 0x2070 JUMP JUMPDEST JUMPDEST PUSH1 0x40 MLOAD SWAP1 DUP1 DUP3 MSTORE DUP1 PUSH1 0x20 MUL PUSH1 0x20 ADD DUP3 ADD PUSH1 0x40 MSTORE DUP1 ISZERO PUSH2 0xB70 JUMPI DUP2 PUSH1 0x20 ADD JUMPDEST PUSH1 0x60 DUP2 MSTORE PUSH1 0x20 ADD SWAP1 PUSH1 0x1 SWAP1 SUB SWAP1 DUP2 PUSH2 0xB5B JUMPI SWAP1 POP JUMPDEST POP SWAP1 POP PUSH1 0x0 DUP5 MLOAD PUSH8 0xFFFFFFFFFFFFFFFF DUP2 GT ISZERO PUSH2 0xB90 JUMPI PUSH2 0xB8F PUSH2 0x2070 JUMP JUMPDEST JUMPDEST PUSH1 0x40 MLOAD SWAP1 DUP1 DUP3 MSTORE DUP1 PUSH1 0x20 MUL PUSH1 0x20 ADD DUP3 ADD PUSH1 0x40 MSTORE DUP1 ISZERO PUSH2 0xBBE JUMPI DUP2 PUSH1 0x20 ADD PUSH1 0x20 DUP3 MUL DUP1 CALLDATASIZE DUP4 CALLDATACOPY DUP1 DUP3 ADD SWAP2 POP POP SWAP1 POP JUMPDEST POP SWAP1 POP PUSH1 0x0 DUP6 MLOAD PUSH8 0xFFFFFFFFFFFFFFFF DUP2 GT ISZERO PUSH2 0xBDE JUMPI PUSH2 0xBDD PUSH2 0x2070 JUMP JUMPDEST JUMPDEST PUSH1 0x40 MLOAD SWAP1 DUP1 DUP3 MSTORE DUP1 PUSH1 0x20 MUL PUSH1 0x20 ADD DUP3 ADD PUSH1 0x40 MSTORE DUP1 ISZERO PUSH2 0xC0C JUMPI DUP2 PUSH1 0x20 ADD PUSH1 0x20 DUP3 MUL DUP1 CALLDATASIZE DUP4 CALLDATACOPY DUP1 DUP3 ADD SWAP2 POP POP SWAP1 POP JUMPDEST POP SWAP1 POP PUSH1 0x0 DUP7 MLOAD PUSH8 0xFFFFFFFFFFFFFFFF DUP2 GT ISZERO PUSH2 0xC2C JUMPI PUSH2 0xC2B PUSH2 0x2070 JUMP JUMPDEST JUMPDEST PUSH1 0x40 MLOAD SWAP1 DUP1 DUP3 MSTORE DUP1 PUSH1 0x20 MUL PUSH1 0x20 ADD DUP3 ADD PUSH1 0x40 MSTORE DUP1 ISZERO PUSH2 0xC5A JUMPI DUP2 PUSH1 0x20 ADD PUSH1 0x20 DUP3 MUL DUP1 CALLDATASIZE DUP4 CALLDATACOPY DUP1 DUP3 ADD SWAP2 POP POP SWAP1 POP JUMPDEST POP SWAP1 POP PUSH1 0x0 JUMPDEST DUP8 MLOAD DUP2 LT ISZERO PUSH2 0xFC4 JUMPI PUSH1 0x0 DUP9 DUP3 DUP2 MLOAD DUP2 LT PUSH2 0xC7E JUMPI PUSH2 0xC7D PUSH2 0x2A60 JUMP JUMPDEST JUMPDEST PUSH1 0x20 MUL PUSH1 0x20 ADD ADD MLOAD SWAP1 POP PUSH1 0x0 PUSH1 0x1 PUSH1 0x0 DUP4 DUP2 MSTORE PUSH1 0x20 ADD SWAP1 DUP2 MSTORE PUSH1 0x20 ADD PUSH1 0x0 KECCAK256 SWAP1 POP DUP1 PUSH1 0x6 ADD PUSH1 0x0 CALLER PUSH20 0xFFFFFFFFFFFFFFFFFFFFFFFFFFFFFFFFFFFFFFFF AND PUSH20 0xFFFFFFFFFFFFFFFFFFFFFFFFFFFFFFFFFFFFFFFF AND DUP2 MSTORE PUSH1 0x20 ADD SWAP1 DUP2 MSTORE PUSH1 0x20 ADD PUSH1 0x0 KECCAK256 PUSH1 0x0 SWAP1 SLOAD SWAP1 PUSH2 0x100 EXP SWAP1 DIV PUSH1 0xFF AND ISZERO PUSH2 0xFAF JUMPI DUP1 PUSH1 0x0 ADD DUP1 SLOAD PUSH2 0xD02 SWAP1 PUSH2 0x256F JUMP JUMPDEST DUP1 PUSH1 0x1F ADD PUSH1 0x20 DUP1 SWAP2 DIV MUL PUSH1 0x20 ADD PUSH1 0x40 MLOAD SWAP1 DUP2 ADD PUSH1 0x40 MSTORE DUP1 SWAP3 SWAP2 SWAP1 DUP2 DUP2 MSTORE PUSH1 0x20 ADD DUP3 DUP1 SLOAD PUSH2 0xD2E SWAP1 PUSH2 0x256F JUMP JUMPDEST DUP1 ISZERO PUSH2 0xD7B JUMPI DUP1 PUSH1 0x1F LT PUSH2 0xD50 JUMPI PUSH2 0x100 DUP1 DUP4 SLOAD DIV MUL DUP4 MSTORE SWAP2 PUSH1 0x20 ADD SWAP2 PUSH2 0xD7B JUMP JUMPDEST DUP3 ADD SWAP2 SWAP1 PUSH1 0x0 MSTORE PUSH1 0x20 PUSH1 0x0 KECCAK256 SWAP1 JUMPDEST DUP2 SLOAD DUP2 MSTORE SWAP1 PUSH1 0x1 ADD SWAP1 PUSH1 0x20 ADD DUP1 DUP4 GT PUSH2 0xD5E JUMPI DUP3 SWAP1 SUB PUSH1 0x1F AND DUP3 ADD SWAP2 JUMPDEST POP POP POP POP POP DUP10 DUP5 DUP2 MLOAD DUP2 LT PUSH2 0xD93 JUMPI PUSH2 0xD92 PUSH2 0x2A60 JUMP JUMPDEST JUMPDEST PUSH1 0x20 MUL PUSH1 0x20 ADD ADD DUP2 SWAP1 MSTORE POP DUP1 PUSH1 0x1 ADD DUP1 SLOAD PUSH2 0xDAD SWAP1 PUSH2 0x256F JUMP JUMPDEST DUP1 PUSH1 0x1F ADD PUSH1 0x20 DUP1 SWAP2 DIV MUL PUSH1 0x20 ADD PUSH1 0x40 MLOAD SWAP1 DUP2 ADD PUSH1 0x40 MSTORE DUP1 SWAP3 SWAP2 SWAP1 DUP2 DUP2 MSTORE PUSH1 0x20 ADD DUP3 DUP1 SLOAD PUSH2 0xDD9 SWAP1 PUSH2 0x256F JUMP JUMPDEST DUP1 ISZERO PUSH2 0xE26 JUMPI DUP1 PUSH1 0x1F LT PUSH2 0xDFB JUMPI PUSH2 0x100 DUP1 DUP4 SLOAD DIV MUL DUP4 MSTORE SWAP2 PUSH1 0x20 ADD SWAP2 PUSH2 0xE26 JUMP JUMPDEST DUP3 ADD SWAP2 SWAP1 PUSH1 0x0 MSTORE PUSH1 0x20 PUSH1 0x0 KECCAK256 SWAP1 JUMPDEST DUP2 SLOAD DUP2 MSTORE SWAP1 PUSH1 0x1 ADD SWAP1 PUSH1 0x20 ADD DUP1 DUP4 GT PUSH2 0xE09 JUMPI DUP3 SWAP1 SUB PUSH1 0x1F AND DUP3 ADD SWAP2 JUMPDEST POP POP POP POP POP DUP9 DUP5 DUP2 MLOAD DUP2 LT PUSH2 0xE3E JUMPI PUSH2 0xE3D PUSH2 0x2A60 JUMP JUMPDEST JUMPDEST PUSH1 0x20 MUL PUSH1 0x20 ADD ADD DUP2 SWAP1 MSTORE POP DUP1 PUSH1 0x2 ADD DUP1 SLOAD PUSH2 0xE58 SWAP1 PUSH2 0x256F JUMP JUMPDEST DUP1 PUSH1 0x1F ADD PUSH1 0x20 DUP1 SWAP2 DIV MUL PUSH1 0x20 ADD PUSH1 0x40 MLOAD SWAP1 DUP2 ADD PUSH1 0x40 MSTORE DUP1 SWAP3 SWAP2 SWAP1 DUP2 DUP2 MSTORE PUSH1 0x20 ADD DUP3 DUP1 SLOAD PUSH2 0xE84 SWAP1 PUSH2 0x256F JUMP JUMPDEST DUP1 ISZERO PUSH2 0xED1 JUMPI DUP1 PUSH1 0x1F LT PUSH2 0xEA6 JUMPI PUSH2 0x100 DUP1 DUP4 SLOAD DIV MUL DUP4 MSTORE SWAP2 PUSH1 0x20 ADD SWAP2 PUSH2 0xED1 JUMP JUMPDEST DUP3 ADD SWAP2 SWAP1 PUSH1 0x0 MSTORE PUSH1 0x20 PUSH1 0x0 KECCAK256 SWAP1 JUMPDEST DUP2 SLOAD DUP2 MSTORE SWAP1 PUSH1 0x1 ADD SWAP1 PUSH1 0x20 ADD DUP1 DUP4 GT PUSH2 0xEB4 JUMPI DUP3 SWAP1 SUB PUSH1 0x1F AND DUP3 ADD SWAP2 JUMPDEST POP POP POP POP POP DUP8 DUP5 DUP2 MLOAD DUP2 LT PUSH2 0xEE9 JUMPI PUSH2 0xEE8 PUSH2 0x2A60 JUMP JUMPDEST JUMPDEST PUSH1 0x20 MUL PUSH1 0x20 ADD ADD DUP2 SWAP1 MSTORE POP DUP1 PUSH1 0x3 ADD SLOAD DUP7 DUP5 DUP2 MLOAD DUP2 LT PUSH2 0xF0C JUMPI PUSH2 0xF0B PUSH2 0x2A60 JUMP JUMPDEST JUMPDEST PUSH1 0x20 MUL PUSH1 0x20 ADD ADD DUP2 DUP2 MSTORE POP POP DUP1 PUSH1 0x4 ADD SLOAD DUP6 DUP5 DUP2 MLOAD DUP2 LT PUSH2 0xF30 JUMPI PUSH2 0xF2F PUSH2 0x2A60 JUMP JUMPDEST JUMPDEST PUSH1 0x20 MUL PUSH1 0x20 ADD ADD DUP2 DUP2 MSTORE POP POP DUP1 PUSH1 0x5 ADD PUSH1 0x0 SWAP1 SLOAD SWAP1 PUSH2 0x100 EXP SWAP1 DIV PUSH20 0xFFFFFFFFFFFFFFFFFFFFFFFFFFFFFFFFFFFFFFFF AND DUP5 DUP5 DUP2 MLOAD DUP2 LT PUSH2 0xF74 JUMPI PUSH2 0xF73 PUSH2 0x2A60 JUMP JUMPDEST JUMPDEST PUSH1 0x20 MUL PUSH1 0x20 ADD ADD SWAP1 PUSH20 0xFFFFFFFFFFFFFFFFFFFFFFFFFFFFFFFFFFFFFFFF AND SWAP1 DUP2 PUSH20 0xFFFFFFFFFFFFFFFFFFFFFFFFFFFFFFFFFFFFFFFF AND DUP2 MSTORE POP POP JUMPDEST POP POP DUP1 DUP1 PUSH2 0xFBC SWAP1 PUSH2 0x29B7 JUMP JUMPDEST SWAP2 POP POP PUSH2 0xC60 JUMP JUMPDEST POP DUP7 DUP7 DUP7 DUP7 DUP7 DUP7 DUP7 SWAP14 POP SWAP14 POP SWAP14 POP SWAP14 POP SWAP14 POP SWAP14 POP SWAP14 POP POP POP POP POP POP POP POP SWAP1 SWAP2 SWAP3 SWAP4 SWAP5 SWAP6 SWAP7 JUMP JUMPDEST PUSH1 0x0 DUP3 CALLER PUSH20 0xFFFFFFFFFFFFFFFFFFFFFFFFFFFFFFFFFFFFFFFF AND PUSH1 0x1 PUSH1 0x0 DUP4 DUP2 MSTORE PUSH1 0x20 ADD SWAP1 DUP2 MSTORE PUSH1 0x20 ADD PUSH1 0x0 KECCAK256 PUSH1 0x5 ADD PUSH1 0x0 SWAP1 SLOAD SWAP1 PUSH2 0x100 EXP SWAP1 DIV PUSH20 0xFFFFFFFFFFFFFFFFFFFFFFFFFFFFFFFFFFFFFFFF AND PUSH20 0xFFFFFFFFFFFFFFFFFFFFFFFFFFFFFFFFFFFFFFFF AND EQ PUSH2 0x1091 JUMPI PUSH1 0x40 MLOAD PUSH32 0x8C379A000000000000000000000000000000000000000000000000000000000 DUP2 MSTORE PUSH1 0x4 ADD PUSH2 0x1088 SWAP1 PUSH2 0x2612 JUMP JUMPDEST PUSH1 0x40 MLOAD DUP1 SWAP2 SUB SWAP1 REVERT JUMPDEST PUSH1 0x0 PUSH20 0xFFFFFFFFFFFFFFFFFFFFFFFFFFFFFFFFFFFFFFFF AND DUP4 PUSH20 0xFFFFFFFFFFFFFFFFFFFFFFFFFFFFFFFFFFFFFFFF AND SUB PUSH2 0x1100 JUMPI PUSH1 0x40 MLOAD PUSH32 0x8C379A000000000000000000000000000000000000000000000000000000000 DUP2 MSTORE PUSH1 0x4 ADD PUSH2 0x10F7 SWAP1 PUSH2 0x2ADB JUMP JUMPDEST PUSH1 0x40 MLOAD DUP1 SWAP2 SUB SWAP1 REVERT JUMPDEST CALLER PUSH20 0xFFFFFFFFFFFFFFFFFFFFFFFFFFFFFFFFFFFFFFFF AND DUP4 PUSH20 0xFFFFFFFFFFFFFFFFFFFFFFFFFFFFFFFFFFFFFFFF AND SUB PUSH2 0x116E JUMPI PUSH1 0x40 MLOAD PUSH32 0x8C379A000000000000000000000000000000000000000000000000000000000 DUP2 MSTORE PUSH1 0x4 ADD PUSH2 0x1165 SWAP1 PUSH2 0x2B47 JUMP JUMPDEST PUSH1 0x40 MLOAD DUP1 SWAP2 SUB SWAP1 REVERT JUMPDEST PUSH1 0x1 PUSH1 0x0 DUP6 DUP2 MSTORE PUSH1 0x20 ADD SWAP1 DUP2 MSTORE PUSH1 0x20 ADD PUSH1 0x0 KECCAK256 PUSH1 0x6 ADD PUSH1 0x0 DUP5 PUSH20 0xFFFFFFFFFFFFFFFFFFFFFFFFFFFFFFFFFFFFFFFF AND PUSH20 0xFFFFFFFFFFFFFFFFFFFFFFFFFFFFFFFFFFFFFFFF AND DUP2 MSTORE PUSH1 0x20 ADD SWAP1 DUP2 MSTORE PUSH1 0x20 ADD PUSH1 0x0 KECCAK256 PUSH1 0x0 SWAP1 SLOAD SWAP1 PUSH2 0x100 EXP SWAP1 DIV PUSH1 0xFF AND ISZERO PUSH2 0x120F JUMPI PUSH1 0x40 MLOAD PUSH32 0x8C379A000000000000000000000000000000000000000000000000000000000 DUP2 MSTORE PUSH1 0x4 ADD PUSH2 0x1206 SWAP1 PUSH2 0x2BD9 JUMP JUMPDEST PUSH1 0x40 MLOAD DUP1 SWAP2 SUB SWAP1 REVERT JUMPDEST PUSH1 0x1 DUP1 PUSH1 0x0 DUP7 DUP2 MSTORE PUSH1 0x20 ADD SWAP1 DUP2 MSTORE PUSH1 0x20 ADD PUSH1 0x0 KECCAK256 PUSH1 0x6 ADD PUSH1 0x0 DUP6 PUSH20 0xFFFFFFFFFFFFFFFFFFFFFFFFFFFFFFFFFFFFFFFF AND PUSH20 0xFFFFFFFFFFFFFFFFFFFFFFFFFFFFFFFFFFFFFFFF AND DUP2 MSTORE PUSH1 0x20 ADD SWAP1 DUP2 MSTORE PUSH1 0x20 ADD PUSH1 0x0 KECCAK256 PUSH1 0x0 PUSH2 0x100 EXP DUP2 SLOAD DUP2 PUSH1 0xFF MUL NOT AND SWAP1 DUP4 ISZERO ISZERO MUL OR SWAP1 SSTORE POP PUSH1 0x3 PUSH1 0x0 DUP5 PUSH20 0xFFFFFFFFFFFFFFFFFFFFFFFFFFFFFFFFFFFFFFFF AND PUSH20 0xFFFFFFFFFFFFFFFFFFFFFFFFFFFFFFFFFFFFFFFF AND DUP2 MSTORE PUSH1 0x20 ADD SWAP1 DUP2 MSTORE PUSH1 0x20 ADD PUSH1 0x0 KECCAK256 DUP5 SWAP1 DUP1 PUSH1 0x1 DUP2 SLOAD ADD DUP1 DUP3 SSTORE DUP1 SWAP2 POP POP PUSH1 0x1 SWAP1 SUB SWAP1 PUSH1 0x0 MSTORE PUSH1 0x20 PUSH1 0x0 KECCAK256 ADD PUSH1 0x0 SWAP1 SWAP2 SWAP1 SWAP2 SWAP1 SWAP2 POP SSTORE PUSH32 0x1890DAECBAAED994FEBADE91E0D69B42771B5EA8E832A96F28D0538A80A15DBE DUP5 CALLER DUP6 PUSH1 0x40 MLOAD PUSH2 0x1313 SWAP4 SWAP3 SWAP2 SWAP1 PUSH2 0x2BF9 JUMP JUMPDEST PUSH1 0x40 MLOAD DUP1 SWAP2 SUB SWAP1 LOG1 PUSH1 0x1 SWAP2 POP POP SWAP3 SWAP2 POP POP JUMP JUMPDEST PUSH1 0x0 DUP2 CALLER PUSH20 0xFFFFFFFFFFFFFFFFFFFFFFFFFFFFFFFFFFFFFFFF AND PUSH1 0x1 PUSH1 0x0 DUP4 DUP2 MSTORE PUSH1 0x20 ADD SWAP1 DUP2 MSTORE PUSH1 0x20 ADD PUSH1 0x0 KECCAK256 PUSH1 0x5 ADD PUSH1 0x0 SWAP1 SLOAD SWAP1 PUSH2 0x100 EXP SWAP1 DIV PUSH20 0xFFFFFFFFFFFFFFFFFFFFFFFFFFFFFFFFFFFFFFFF AND PUSH20 0xFFFFFFFFFFFFFFFFFFFFFFFFFFFFFFFFFFFFFFFF AND EQ PUSH2 0x13CD JUMPI PUSH1 0x40 MLOAD PUSH32 0x8C379A000000000000000000000000000000000000000000000000000000000 DUP2 MSTORE PUSH1 0x4 ADD PUSH2 0x13C4 SWAP1 PUSH2 0x2612 JUMP JUMPDEST PUSH1 0x40 MLOAD DUP1 SWAP2 SUB SWAP1 REVERT JUMPDEST PUSH1 0x0 PUSH1 0x2 PUSH1 0x0 CALLER PUSH20 0xFFFFFFFFFFFFFFFFFFFFFFFFFFFFFFFFFFFFFFFF AND PUSH20 0xFFFFFFFFFFFFFFFFFFFFFFFFFFFFFFFFFFFFFFFF AND DUP2 MSTORE PUSH1 0x20 ADD SWAP1 DUP2 MSTORE PUSH1 0x20 ADD PUSH1 0x0 KECCAK256 SWAP1 POP PUSH1 0x0 JUMPDEST DUP2 DUP1 SLOAD SWAP1 POP DUP2 LT ISZERO PUSH2 0x14D1 JUMPI DUP5 DUP3 DUP3 DUP2 SLOAD DUP2 LT PUSH2 0x1433 JUMPI PUSH2 0x1432 PUSH2 0x2A60 JUMP JUMPDEST JUMPDEST SWAP1 PUSH1 0x0 MSTORE PUSH1 0x20 PUSH1 0x0 KECCAK256 ADD SLOAD SUB PUSH2 0x14BE JUMPI DUP2 PUSH1 0x1 DUP4 DUP1 SLOAD SWAP1 POP PUSH2 0x1455 SWAP2 SWAP1 PUSH2 0x2C30 JUMP JUMPDEST DUP2 SLOAD DUP2 LT PUSH2 0x1466 JUMPI PUSH2 0x1465 PUSH2 0x2A60 JUMP JUMPDEST JUMPDEST SWAP1 PUSH1 0x0 MSTORE PUSH1 0x20 PUSH1 0x0 KECCAK256 ADD SLOAD DUP3 DUP3 DUP2 SLOAD DUP2 LT PUSH2 0x1484 JUMPI PUSH2 0x1483 PUSH2 0x2A60 JUMP JUMPDEST JUMPDEST SWAP1 PUSH1 0x0 MSTORE PUSH1 0x20 PUSH1 0x0 KECCAK256 ADD DUP2 SWAP1 SSTORE POP DUP2 DUP1 SLOAD DUP1 PUSH2 0x14A3 JUMPI PUSH2 0x14A2 PUSH2 0x2C64 JUMP JUMPDEST JUMPDEST PUSH1 0x1 SWAP1 SUB DUP2 DUP2 SWAP1 PUSH1 0x0 MSTORE PUSH1 0x20 PUSH1 0x0 KECCAK256 ADD PUSH1 0x0 SWAP1 SSTORE SWAP1 SSTORE PUSH2 0x14D1 JUMP JUMPDEST DUP1 DUP1 PUSH2 0x14C9 SWAP1 PUSH2 0x29B7 JUMP JUMPDEST SWAP2 POP POP PUSH2 0x1413 JUMP JUMPDEST POP PUSH1 0x1 SWAP3 POP POP POP SWAP2 SWAP1 POP JUMP JUMPDEST PUSH1 0x0 DUP2 PUSH20 0xFFFFFFFFFFFFFFFFFFFFFFFFFFFFFFFFFFFFFFFF AND PUSH1 0x1 PUSH1 0x0 DUP6 DUP2 MSTORE PUSH1 0x20 ADD SWAP1 DUP2 MSTORE PUSH1 0x20 ADD PUSH1 0x0 KECCAK256 PUSH1 0x5 ADD PUSH1 0x0 SWAP1 SLOAD SWAP1 PUSH2 0x100 EXP SWAP1 DIV PUSH20 0xFFFFFFFFFFFFFFFFFFFFFFFFFFFFFFFFFFFFFFFF AND PUSH20 0xFFFFFFFFFFFFFFFFFFFFFFFFFFFFFFFFFFFFFFFF AND EQ DUP1 PUSH2 0x15AC JUMPI POP PUSH1 0x1 PUSH1 0x0 DUP5 DUP2 MSTORE PUSH1 0x20 ADD SWAP1 DUP2 MSTORE PUSH1 0x20 ADD PUSH1 0x0 KECCAK256 PUSH1 0x6 ADD PUSH1 0x0 DUP4 PUSH20 0xFFFFFFFFFFFFFFFFFFFFFFFFFFFFFFFFFFFFFFFF AND PUSH20 0xFFFFFFFFFFFFFFFFFFFFFFFFFFFFFFFFFFFFFFFF AND DUP2 MSTORE PUSH1 0x20 ADD SWAP1 DUP2 MSTORE PUSH1 0x20 ADD PUSH1 0x0 KECCAK256 PUSH1 0x0 SWAP1 SLOAD SWAP1 PUSH2 0x100 EXP SWAP1 DIV PUSH1 0xFF AND JUMPDEST SWAP1 POP SWAP3 SWAP2 POP POP JUMP JUMPDEST PUSH1 0x0 DUP3 CALLER PUSH20 0xFFFFFFFFFFFFFFFFFFFFFFFFFFFFFFFFFFFFFFFF AND PUSH1 0x1 PUSH1 0x0 DUP4 DUP2 MSTORE PUSH1 0x20 ADD SWAP1 DUP2 MSTORE PUSH1 0x20 ADD PUSH1 0x0 KECCAK256 PUSH1 0x5 ADD PUSH1 0x0 SWAP1 SLOAD SWAP1 PUSH2 0x100 EXP SWAP1 DIV PUSH20 0xFFFFFFFFFFFFFFFFFFFFFFFFFFFFFFFFFFFFFFFF AND PUSH20 0xFFFFFFFFFFFFFFFFFFFFFFFFFFFFFFFFFFFFFFFF AND EQ PUSH2 0x165B JUMPI PUSH1 0x40 MLOAD PUSH32 0x8C379A000000000000000000000000000000000000000000000000000000000 DUP2 MSTORE PUSH1 0x4 ADD PUSH2 0x1652 SWAP1 PUSH2 0x2612 JUMP JUMPDEST PUSH1 0x40 MLOAD DUP1 SWAP2 SUB SWAP1 REVERT JUMPDEST PUSH1 0x0 PUSH20 0xFFFFFFFFFFFFFFFFFFFFFFFFFFFFFFFFFFFFFFFF AND DUP4 PUSH20 0xFFFFFFFFFFFFFFFFFFFFFFFFFFFFFFFFFFFFFFFF AND SUB PUSH2 0x16CA JUMPI PUSH1 0x40 MLOAD PUSH32 0x8C379A000000000000000000000000000000000000000000000000000000000 DUP2 MSTORE PUSH1 0x4 ADD PUSH2 0x16C1 SWAP1 PUSH2 0x2CDF JUMP JUMPDEST PUSH1 0x40 MLOAD DUP1 SWAP2 SUB SWAP1 REVERT JUMPDEST PUSH1 0x1 PUSH1 0x0 DUP6 DUP2 MSTORE PUSH1 0x20 ADD SWAP1 DUP2 MSTORE PUSH1 0x20 ADD PUSH1 0x0 KECCAK256 PUSH1 0x6 ADD PUSH1 0x0 DUP5 PUSH20 0xFFFFFFFFFFFFFFFFFFFFFFFFFFFFFFFFFFFFFFFF AND PUSH20 0xFFFFFFFFFFFFFFFFFFFFFFFFFFFFFFFFFFFFFFFF AND DUP2 MSTORE PUSH1 0x20 ADD SWAP1 DUP2 MSTORE PUSH1 0x20 ADD PUSH1 0x0 KECCAK256 PUSH1 0x0 SWAP1 SLOAD SWAP1 PUSH2 0x100 EXP SWAP1 DIV PUSH1 0xFF AND PUSH2 0x176A JUMPI PUSH1 0x40 MLOAD PUSH32 0x8C379A000000000000000000000000000000000000000000000000000000000 DUP2 MSTORE PUSH1 0x4 ADD PUSH2 0x1761 SWAP1 PUSH2 0x2D71 JUMP JUMPDEST PUSH1 0x40 MLOAD DUP1 SWAP2 SUB SWAP1 REVERT JUMPDEST PUSH1 0x0 PUSH1 0x1 PUSH1 0x0 DUP7 DUP2 MSTORE PUSH1 0x20 ADD SWAP1 DUP2 MSTORE PUSH1 0x20 ADD PUSH1 0x0 KECCAK256 PUSH1 0x6 ADD PUSH1 0x0 DUP6 PUSH20 0xFFFFFFFFFFFFFFFFFFFFFFFFFFFFFFFFFFFFFFFF AND PUSH20 0xFFFFFFFFFFFFFFFFFFFFFFFFFFFFFFFFFFFFFFFF AND DUP2 MSTORE PUSH1 0x20 ADD SWAP1 DUP2 MSTORE PUSH1 0x20 ADD PUSH1 0x0 KECCAK256 PUSH1 0x0 PUSH2 0x100 EXP DUP2 SLOAD DUP2 PUSH1 0xFF MUL NOT AND SWAP1 DUP4 ISZERO ISZERO MUL OR SWAP1 SSTORE POP PUSH1 0x0 PUSH1 0x3 PUSH1 0x0 DUP6 PUSH20 0xFFFFFFFFFFFFFFFFFFFFFFFFFFFFFFFFFFFFFFFF AND PUSH20 0xFFFFFFFFFFFFFFFFFFFFFFFFFFFFFFFFFFFFFFFF AND DUP2 MSTORE PUSH1 0x20 ADD SWAP1 DUP2 MSTORE PUSH1 0x20 ADD PUSH1 0x0 KECCAK256 SWAP1 POP PUSH1 0x0 JUMPDEST DUP2 DUP1 SLOAD SWAP1 POP DUP2 LT ISZERO PUSH2 0x18DA JUMPI DUP6 DUP3 DUP3 DUP2 SLOAD DUP2 LT PUSH2 0x183C JUMPI PUSH2 0x183B PUSH2 0x2A60 JUMP JUMPDEST JUMPDEST SWAP1 PUSH1 0x0 MSTORE PUSH1 0x20 PUSH1 0x0 KECCAK256 ADD SLOAD SUB PUSH2 0x18C7 JUMPI DUP2 PUSH1 0x1 DUP4 DUP1 SLOAD SWAP1 POP PUSH2 0x185E SWAP2 SWAP1 PUSH2 0x2C30 JUMP JUMPDEST DUP2 SLOAD DUP2 LT PUSH2 0x186F JUMPI PUSH2 0x186E PUSH2 0x2A60 JUMP JUMPDEST JUMPDEST SWAP1 PUSH1 0x0 MSTORE PUSH1 0x20 PUSH1 0x0 KECCAK256 ADD SLOAD DUP3 DUP3 DUP2 SLOAD DUP2 LT PUSH2 0x188D JUMPI PUSH2 0x188C PUSH2 0x2A60 JUMP JUMPDEST JUMPDEST SWAP1 PUSH1 0x0 MSTORE PUSH1 0x20 PUSH1 0x0 KECCAK256 ADD DUP2 SWAP1 SSTORE POP DUP2 DUP1 SLOAD DUP1 PUSH2 0x18AC JUMPI PUSH2 0x18AB PUSH2 0x2C64 JUMP JUMPDEST JUMPDEST PUSH1 0x1 SWAP1 SUB DUP2 DUP2 SWAP1 PUSH1 0x0 MSTORE PUSH1 0x20 PUSH1 0x0 KECCAK256 ADD PUSH1 0x0 SWAP1 SSTORE SWAP1 SSTORE PUSH2 0x18DA JUMP JUMPDEST DUP1 DUP1 PUSH2 0x18D2 SWAP1 PUSH2 0x29B7 JUMP JUMPDEST SWAP2 POP POP PUSH2 0x181C JUMP JUMPDEST POP PUSH32 0xA44E6D49C6E8E4B86891BC6076A2A9C460B67CC72EFE9B5487E3BB5B0497AABF DUP6 CALLER DUP7 PUSH1 0x40 MLOAD PUSH2 0x190E SWAP4 SWAP3 SWAP2 SWAP1 PUSH2 0x2BF9 JUMP JUMPDEST PUSH1 0x40 MLOAD DUP1 SWAP2 SUB SWAP1 LOG1 PUSH1 0x1 SWAP3 POP POP POP SWAP3 SWAP2 POP POP JUMP JUMPDEST PUSH1 0x0 DUP3 CALLER PUSH20 0xFFFFFFFFFFFFFFFFFFFFFFFFFFFFFFFFFFFFFFFF AND PUSH1 0x1 PUSH1 0x0 DUP4 DUP2 MSTORE PUSH1 0x20 ADD SWAP1 DUP2 MSTORE PUSH1 0x20 ADD PUSH1 0x0 KECCAK256 PUSH1 0x5 ADD PUSH1 0x0 SWAP1 SLOAD SWAP1 PUSH2 0x100 EXP SWAP1 DIV PUSH20 0xFFFFFFFFFFFFFFFFFFFFFFFFFFFFFFFFFFFFFFFF AND PUSH20 0xFFFFFFFFFFFFFFFFFFFFFFFFFFFFFFFFFFFFFFFF AND EQ PUSH2 0x19C9 JUMPI PUSH1 0x40 MLOAD PUSH32 0x8C379A000000000000000000000000000000000000000000000000000000000 DUP2 MSTORE PUSH1 0x4 ADD PUSH2 0x19C0 SWAP1 PUSH2 0x2612 JUMP JUMPDEST PUSH1 0x40 MLOAD DUP1 SWAP2 SUB SWAP1 REVERT JUMPDEST PUSH1 0x0 DUP4 MLOAD GT PUSH2 0x1A0D JUMPI PUSH1 0x40 MLOAD PUSH32 0x8C379A000000000000000000000000000000000000000000000000000000000 DUP2 MSTORE PUSH1 0x4 ADD PUSH2 0x1A04 SWAP1 PUSH2 0x26EA JUMP JUMPDEST PUSH1 0x40 MLOAD DUP1 SWAP2 SUB SWAP1 REVERT JUMPDEST DUP3 PUSH1 0x1 PUSH1 0x0 DUP7 DUP2 MSTORE PUSH1 0x20 ADD SWAP1 DUP2 MSTORE PUSH1 0x20 ADD PUSH1 0x0 KECCAK256 PUSH1 0x1 ADD SWAP1 DUP2 PUSH2 0x1A30 SWAP2 SWAP1 PUSH2 0x28B6 JUMP JUMPDEST POP PUSH1 0x1 SWAP2 POP POP SWAP3 SWAP2 POP POP JUMP JUMPDEST PUSH1 0x1 PUSH1 0x20 MSTORE DUP1 PUSH1 0x0 MSTORE PUSH1 0x40 PUSH1 0x0 KECCAK256 PUSH1 0x0 SWAP2 POP SWAP1 POP DUP1 PUSH1 0x0 ADD DUP1 SLOAD PUSH2 0x1A5F SWAP1 PUSH2 0x256F JUMP JUMPDEST DUP1 PUSH1 0x1F ADD PUSH1 0x20 DUP1 SWAP2 DIV MUL PUSH1 0x20 ADD PUSH1 0x40 MLOAD SWAP1 DUP2 ADD PUSH1 0x40 MSTORE DUP1 SWAP3 SWAP2 SWAP1 DUP2 DUP2 MSTORE PUSH1 0x20 ADD DUP3 DUP1 SLOAD PUSH2 0x1A8B SWAP1 PUSH2 0x256F JUMP JUMPDEST DUP1 ISZERO PUSH2 0x1AD8 JUMPI DUP1 PUSH1 0x1F LT PUSH2 0x1AAD JUMPI PUSH2 0x100 DUP1 DUP4 SLOAD DIV MUL DUP4 MSTORE SWAP2 PUSH1 0x20 ADD SWAP2 PUSH2 0x1AD8 JUMP JUMPDEST DUP3 ADD SWAP2 SWAP1 PUSH1 0x0 MSTORE PUSH1 0x20 PUSH1 0x0 KECCAK256 SWAP1 JUMPDEST DUP2 SLOAD DUP2 MSTORE SWAP1 PUSH1 0x1 ADD SWAP1 PUSH1 0x20 ADD DUP1 DUP4 GT PUSH2 0x1ABB JUMPI DUP3 SWAP1 SUB PUSH1 0x1F AND DUP3 ADD SWAP2 JUMPDEST POP POP POP POP POP SWAP1 DUP1 PUSH1 0x1 ADD DUP1 SLOAD PUSH2 0x1AED SWAP1 PUSH2 0x256F JUMP JUMPDEST DUP1 PUSH1 0x1F ADD PUSH1 0x20 DUP1 SWAP2 DIV MUL PUSH1 0x20 ADD PUSH1 0x40 MLOAD SWAP1 DUP2 ADD PUSH1 0x40 MSTORE DUP1 SWAP3 SWAP2 SWAP1 DUP2 DUP2 MSTORE PUSH1 0x20 ADD DUP3 DUP1 SLOAD PUSH2 0x1B19 SWAP1 PUSH2 0x256F JUMP JUMPDEST DUP1 ISZERO PUSH2 0x1B66 JUMPI DUP1 PUSH1 0x1F LT PUSH2 0x1B3B JUMPI PUSH2 0x100 DUP1 DUP4 SLOAD DIV MUL DUP4 MSTORE SWAP2 PUSH1 0x20 ADD SWAP2 PUSH2 0x1B66 JUMP JUMPDEST DUP3 ADD SWAP2 SWAP1 PUSH1 0x0 MSTORE PUSH1 0x20 PUSH1 0x0 KECCAK256 SWAP1 JUMPDEST DUP2 SLOAD DUP2 MSTORE SWAP1 PUSH1 0x1 ADD SWAP1 PUSH1 0x20 ADD DUP1 DUP4 GT PUSH2 0x1B49 JUMPI DUP3 SWAP1 SUB PUSH1 0x1F AND DUP3 ADD SWAP2 JUMPDEST POP POP POP POP POP SWAP1 DUP1 PUSH1 0x2 ADD DUP1 SLOAD PUSH2 0x1B7B SWAP1 PUSH2 0x256F JUMP JUMPDEST DUP1 PUSH1 0x1F ADD PUSH1 0x20 DUP1 SWAP2 DIV MUL PUSH1 0x20 ADD PUSH1 0x40 MLOAD SWAP1 DUP2 ADD PUSH1 0x40 MSTORE DUP1 SWAP3 SWAP2 SWAP1 DUP2 DUP2 MSTORE PUSH1 0x20 ADD DUP3 DUP1 SLOAD PUSH2 0x1BA7 SWAP1 PUSH2 0x256F JUMP JUMPDEST DUP1 ISZERO PUSH2 0x1BF4 JUMPI DUP1 PUSH1 0x1F LT PUSH2 0x1BC9 JUMPI PUSH2 0x100 DUP1 DUP4 SLOAD DIV MUL DUP4 MSTORE SWAP2 PUSH1 0x20 ADD SWAP2 PUSH2 0x1BF4 JUMP JUMPDEST DUP3 ADD SWAP2 SWAP1 PUSH1 0x0 MSTORE PUSH1 0x20 PUSH1 0x0 KECCAK256 SWAP1 JUMPDEST DUP2 SLOAD DUP2 MSTORE SWAP1 PUSH1 0x1 ADD SWAP1 PUSH1 0x20 ADD DUP1 DUP4 GT PUSH2 0x1BD7 JUMPI DUP3 SWAP1 SUB PUSH1 0x1F AND DUP3 ADD SWAP2 JUMPDEST POP POP POP POP POP SWAP1 DUP1 PUSH1 0x3 ADD SLOAD SWAP1 DUP1 PUSH1 0x4 ADD SLOAD SWAP1 DUP1 PUSH1 0x5 ADD PUSH1 0x0 SWAP1 SLOAD SWAP1 PUSH2 0x100 EXP SWAP1 DIV PUSH20 0xFFFFFFFFFFFFFFFFFFFFFFFFFFFFFFFFFFFFFFFF AND SWAP1 POP DUP7 JUMP JUMPDEST PUSH1 0x0 PUSH1 0x2 PUSH1 0x0 CALLER PUSH20 0xFFFFFFFFFFFFFFFFFFFFFFFFFFFFFFFFFFFFFFFF AND PUSH20 0xFFFFFFFFFFFFFFFFFFFFFFFFFFFFFFFFFFFFFFFF AND DUP2 MSTORE PUSH1 0x20 ADD SWAP1 DUP2 MSTORE PUSH1 0x20 ADD PUSH1 0x0 KECCAK256 DUP1 SLOAD SWAP1 POP SWAP1 POP SWAP1 JUMP JUMPDEST PUSH1 0x0 PUSH1 0x40 MLOAD SWAP1 POP SWAP1 JUMP JUMPDEST PUSH1 0x0 DUP1 REVERT JUMPDEST PUSH1 0x0 DUP1 REVERT JUMPDEST PUSH1 0x0 DUP2 SWAP1 POP SWAP2 SWAP1 POP JUMP JUMPDEST PUSH2 0x1CA1 DUP2 PUSH2 0x1C8E JUMP JUMPDEST DUP2 EQ PUSH2 0x1CAC JUMPI PUSH1 0x0 DUP1 REVERT JUMPDEST POP JUMP JUMPDEST PUSH1 0x0 DUP2 CALLDATALOAD SWAP1 POP PUSH2 0x1CBE DUP2 PUSH2 0x1C98 JUMP JUMPDEST SWAP3 SWAP2 POP POP JUMP JUMPDEST PUSH1 0x0 PUSH1 0x20 DUP3 DUP5 SUB SLT ISZERO PUSH2 0x1CDA JUMPI PUSH2 0x1CD9 PUSH2 0x1C84 JUMP JUMPDEST JUMPDEST PUSH1 0x0 PUSH2 0x1CE8 DUP5 DUP3 DUP6 ADD PUSH2 0x1CAF JUMP JUMPDEST SWAP2 POP POP SWAP3 SWAP2 POP POP JUMP JUMPDEST PUSH1 0x0 DUP2 MLOAD SWAP1 POP SWAP2 SWAP1 POP JUMP JUMPDEST PUSH1 0x0 DUP3 DUP3 MSTORE PUSH1 0x20 DUP3 ADD SWAP1 POP SWAP3 SWAP2 POP POP JUMP JUMPDEST PUSH1 0x0 JUMPDEST DUP4 DUP2 LT ISZERO PUSH2 0x1D2B JUMPI DUP1 DUP3 ADD MLOAD DUP2 DUP5 ADD MSTORE PUSH1 0x20 DUP2 ADD SWAP1 POP PUSH2 0x1D10 JUMP JUMPDEST PUSH1 0x0 DUP5 DUP5 ADD MSTORE POP POP POP POP JUMP JUMPDEST PUSH1 0x0 PUSH1 0x1F NOT PUSH1 0x1F DUP4 ADD AND SWAP1 POP SWAP2 SWAP1 POP JUMP JUMPDEST PUSH1 0x0 PUSH2 0x1D53 DUP3 PUSH2 0x1CF1 JUMP JUMPDEST PUSH2 0x1D5D DUP2 DUP6 PUSH2 0x1CFC JUMP JUMPDEST SWAP4 POP PUSH2 0x1D6D DUP2 DUP6 PUSH1 0x20 DUP7 ADD PUSH2 0x1D0D JUMP JUMPDEST PUSH2 0x1D76 DUP2 PUSH2 0x1D37 JUMP JUMPDEST DUP5 ADD SWAP2 POP POP SWAP3 SWAP2 POP POP JUMP JUMPDEST PUSH2 0x1D8A DUP2 PUSH2 0x1C8E JUMP JUMPDEST DUP3 MSTORE POP POP JUMP JUMPDEST PUSH1 0x0 PUSH20 0xFFFFFFFFFFFFFFFFFFFFFFFFFFFFFFFFFFFFFFFF DUP3 AND SWAP1 POP SWAP2 SWAP1 POP JUMP JUMPDEST PUSH1 0x0 PUSH2 0x1DBB DUP3 PUSH2 0x1D90 JUMP JUMPDEST SWAP1 POP SWAP2 SWAP1 POP JUMP JUMPDEST PUSH2 0x1DCB DUP2 PUSH2 0x1DB0 JUMP JUMPDEST DUP3 MSTORE POP POP JUMP JUMPDEST PUSH1 0x0 DUP2 ISZERO ISZERO SWAP1 POP SWAP2 SWAP1 POP JUMP JUMPDEST PUSH2 0x1DE6 DUP2 PUSH2 0x1DD1 JUMP JUMPDEST DUP3 MSTORE POP POP JUMP JUMPDEST PUSH1 0x0 PUSH1 0xE0 DUP3 ADD SWAP1 POP DUP2 DUP2 SUB PUSH1 0x0 DUP4 ADD MSTORE PUSH2 0x1E06 DUP2 DUP11 PUSH2 0x1D48 JUMP JUMPDEST SWAP1 POP DUP2 DUP2 SUB PUSH1 0x20 DUP4 ADD MSTORE PUSH2 0x1E1A DUP2 DUP10 PUSH2 0x1D48 JUMP JUMPDEST SWAP1 POP DUP2 DUP2 SUB PUSH1 0x40 DUP4 ADD MSTORE PUSH2 0x1E2E DUP2 DUP9 PUSH2 0x1D48 JUMP JUMPDEST SWAP1 POP PUSH2 0x1E3D PUSH1 0x60 DUP4 ADD DUP8 PUSH2 0x1D81 JUMP JUMPDEST PUSH2 0x1E4A PUSH1 0x80 DUP4 ADD DUP7 PUSH2 0x1D81 JUMP JUMPDEST PUSH2 0x1E57 PUSH1 0xA0 DUP4 ADD DUP6 PUSH2 0x1DC2 JUMP JUMPDEST PUSH2 0x1E64 PUSH1 0xC0 DUP4 ADD DUP5 PUSH2 0x1DDD JUMP JUMPDEST SWAP9 SWAP8 POP POP POP POP POP POP POP POP JUMP JUMPDEST PUSH1 0x0 DUP2 MLOAD SWAP1 POP SWAP2 SWAP1 POP JUMP JUMPDEST PUSH1 0x0 DUP3 DUP3 MSTORE PUSH1 0x20 DUP3 ADD SWAP1 POP SWAP3 SWAP2 POP POP JUMP JUMPDEST PUSH1 0x0 DUP2 SWAP1 POP PUSH1 0x20 DUP3 ADD SWAP1 POP SWAP2 SWAP1 POP JUMP JUMPDEST PUSH2 0x1EA5 DUP2 PUSH2 0x1C8E JUMP JUMPDEST DUP3 MSTORE POP POP JUMP JUMPDEST PUSH1 0x0 PUSH2 0x1EB7 DUP4 DUP4 PUSH2 0x1E9C JUMP JUMPDEST PUSH1 0x20 DUP4 ADD SWAP1 POP SWAP3 SWAP2 POP POP JUMP JUMPDEST PUSH1 0x0 PUSH1 0x20 DUP3 ADD SWAP1 POP SWAP2 SWAP1 POP JUMP JUMPDEST PUSH1 0x0 PUSH2 0x1EDB DUP3 PUSH2 0x1E70 JUMP JUMPDEST PUSH2 0x1EE5 DUP2 DUP6 PUSH2 0x1E7B JUMP JUMPDEST SWAP4 POP PUSH2 0x1EF0 DUP4 PUSH2 0x1E8C JUMP JUMPDEST DUP1 PUSH1 0x0 JUMPDEST DUP4 DUP2 LT ISZERO PUSH2 0x1F21 JUMPI DUP2 MLOAD PUSH2 0x1F08 DUP9 DUP3 PUSH2 0x1EAB JUMP JUMPDEST SWAP8 POP PUSH2 0x1F13 DUP4 PUSH2 0x1EC3 JUMP JUMPDEST SWAP3 POP POP PUSH1 0x1 DUP2 ADD SWAP1 POP PUSH2 0x1EF4 JUMP JUMPDEST POP DUP6 SWAP4 POP POP POP POP SWAP3 SWAP2 POP POP JUMP JUMPDEST PUSH1 0x0 PUSH1 0x20 DUP3 ADD SWAP1 POP DUP2 DUP2 SUB PUSH1 0x0 DUP4 ADD MSTORE PUSH2 0x1F48 DUP2 DUP5 PUSH2 0x1ED0 JUMP JUMPDEST SWAP1 POP SWAP3 SWAP2 POP POP JUMP JUMPDEST PUSH1 0x0 PUSH1 0x20 DUP3 ADD SWAP1 POP PUSH2 0x1F65 PUSH1 0x0 DUP4 ADD DUP5 PUSH2 0x1D81 JUMP JUMPDEST SWAP3 SWAP2 POP POP JUMP JUMPDEST PUSH1 0x0 PUSH1 0x20 DUP3 ADD SWAP1 POP PUSH2 0x1F80 PUSH1 0x0 DUP4 ADD DUP5 PUSH2 0x1DDD JUMP JUMPDEST SWAP3 SWAP2 POP POP JUMP JUMPDEST PUSH1 0x0 DUP2 MLOAD SWAP1 POP SWAP2 SWAP1 POP JUMP JUMPDEST PUSH1 0x0 DUP3 DUP3 MSTORE PUSH1 0x20 DUP3 ADD SWAP1 POP SWAP3 SWAP2 POP POP JUMP JUMPDEST PUSH1 0x0 DUP2 SWAP1 POP PUSH1 0x20 DUP3 ADD SWAP1 POP SWAP2 SWAP1 POP JUMP JUMPDEST PUSH2 0x1FBB DUP2 PUSH2 0x1DB0 JUMP JUMPDEST DUP3 MSTORE POP POP JUMP JUMPDEST PUSH1 0x0 PUSH2 0x1FCD DUP4 DUP4 PUSH2 0x1FB2 JUMP JUMPDEST PUSH1 0x20 DUP4 ADD SWAP1 POP SWAP3 SWAP2 POP POP JUMP JUMPDEST PUSH1 0x0 PUSH1 0x20 DUP3 ADD SWAP1 POP SWAP2 SWAP1 POP JUMP JUMPDEST PUSH1 0x0 PUSH2 0x1FF1 DUP3 PUSH2 0x1F86 JUMP JUMPDEST PUSH2 0x1FFB DUP2 DUP6 PUSH2 0x1F91 JUMP JUMPDEST SWAP4 POP PUSH2 0x2006 DUP4 PUSH2 0x1FA2 JUMP JUMPDEST DUP1 PUSH1 0x0 JUMPDEST DUP4 DUP2 LT ISZERO PUSH2 0x2037 JUMPI DUP2 MLOAD PUSH2 0x201E DUP9 DUP3 PUSH2 0x1FC1 JUMP JUMPDEST SWAP8 POP PUSH2 0x2029 DUP4 PUSH2 0x1FD9 JUMP JUMPDEST SWAP3 POP POP PUSH1 0x1 DUP2 ADD SWAP1 POP PUSH2 0x200A JUMP JUMPDEST POP DUP6 SWAP4 POP POP POP POP SWAP3 SWAP2 POP POP JUMP JUMPDEST PUSH1 0x0 PUSH1 0x20 DUP3 ADD SWAP1 POP DUP2 DUP2 SUB PUSH1 0x0 DUP4 ADD MSTORE PUSH2 0x205E DUP2 DUP5 PUSH2 0x1FE6 JUMP JUMPDEST SWAP1 POP SWAP3 SWAP2 POP POP JUMP JUMPDEST PUSH1 0x0 DUP1 REVERT JUMPDEST PUSH1 0x0 DUP1 REVERT JUMPDEST PUSH32 0x4E487B7100000000000000000000000000000000000000000000000000000000 PUSH1 0x0 MSTORE PUSH1 0x41 PUSH1 0x4 MSTORE PUSH1 0x24 PUSH1 0x0 REVERT JUMPDEST PUSH2 0x20A8 DUP3 PUSH2 0x1D37 JUMP JUMPDEST DUP2 ADD DUP2 DUP2 LT PUSH8 0xFFFFFFFFFFFFFFFF DUP3 GT OR ISZERO PUSH2 0x20C7 JUMPI PUSH2 0x20C6 PUSH2 0x2070 JUMP JUMPDEST JUMPDEST DUP1 PUSH1 0x40 MSTORE POP POP POP JUMP JUMPDEST PUSH1 0x0 PUSH2 0x20DA PUSH2 0x1C7A JUMP JUMPDEST SWAP1 POP PUSH2 0x20E6 DUP3 DUP3 PUSH2 0x209F JUMP JUMPDEST SWAP2 SWAP1 POP JUMP JUMPDEST PUSH1 0x0 PUSH8 0xFFFFFFFFFFFFFFFF DUP3 GT ISZERO PUSH2 0x2106 JUMPI PUSH2 0x2105 PUSH2 0x2070 JUMP JUMPDEST JUMPDEST PUSH2 0x210F DUP3 PUSH2 0x1D37 JUMP JUMPDEST SWAP1 POP PUSH1 0x20 DUP2 ADD SWAP1 POP SWAP2 SWAP1 POP JUMP JUMPDEST DUP3 DUP2 DUP4 CALLDATACOPY PUSH1 0x0 DUP4 DUP4 ADD MSTORE POP POP POP JUMP JUMPDEST PUSH1 0x0 PUSH2 0x213E PUSH2 0x2139 DUP5 PUSH2 0x20EB JUMP JUMPDEST PUSH2 0x20D0 JUMP JUMPDEST SWAP1 POP DUP3 DUP2 MSTORE PUSH1 0x20 DUP2 ADD DUP5 DUP5 DUP5 ADD GT ISZERO PUSH2 0x215A JUMPI PUSH2 0x2159 PUSH2 0x206B JUMP JUMPDEST JUMPDEST PUSH2 0x2165 DUP5 DUP3 DUP6 PUSH2 0x211C JUMP JUMPDEST POP SWAP4 SWAP3 POP POP POP JUMP JUMPDEST PUSH1 0x0 DUP3 PUSH1 0x1F DUP4 ADD SLT PUSH2 0x2182 JUMPI PUSH2 0x2181 PUSH2 0x2066 JUMP JUMPDEST JUMPDEST DUP2 CALLDATALOAD PUSH2 0x2192 DUP5 DUP3 PUSH1 0x20 DUP7 ADD PUSH2 0x212B JUMP JUMPDEST SWAP2 POP POP SWAP3 SWAP2 POP POP JUMP JUMPDEST PUSH1 0x0 DUP1 PUSH1 0x0 DUP1 PUSH1 0x80 DUP6 DUP8 SUB SLT ISZERO PUSH2 0x21B5 JUMPI PUSH2 0x21B4 PUSH2 0x1C84 JUMP JUMPDEST JUMPDEST PUSH1 0x0 DUP6 ADD CALLDATALOAD PUSH8 0xFFFFFFFFFFFFFFFF DUP2 GT ISZERO PUSH2 0x21D3 JUMPI PUSH2 0x21D2 PUSH2 0x1C89 JUMP JUMPDEST JUMPDEST PUSH2 0x21DF DUP8 DUP3 DUP9 ADD PUSH2 0x216D JUMP JUMPDEST SWAP5 POP POP PUSH1 0x20 DUP6 ADD CALLDATALOAD PUSH8 0xFFFFFFFFFFFFFFFF DUP2 GT ISZERO PUSH2 0x2200 JUMPI PUSH2 0x21FF PUSH2 0x1C89 JUMP JUMPDEST JUMPDEST PUSH2 0x220C DUP8 DUP3 DUP9 ADD PUSH2 0x216D JUMP JUMPDEST SWAP4 POP POP PUSH1 0x40 DUP6 ADD CALLDATALOAD PUSH8 0xFFFFFFFFFFFFFFFF DUP2 GT ISZERO PUSH2 0x222D JUMPI PUSH2 0x222C PUSH2 0x1C89 JUMP JUMPDEST JUMPDEST PUSH2 0x2239 DUP8 DUP3 DUP9 ADD PUSH2 0x216D JUMP JUMPDEST SWAP3 POP POP PUSH1 0x60 PUSH2 0x224A DUP8 DUP3 DUP9 ADD PUSH2 0x1CAF JUMP JUMPDEST SWAP2 POP POP SWAP3 SWAP6 SWAP2 SWAP5 POP SWAP3 POP JUMP JUMPDEST PUSH1 0x0 DUP2 MLOAD SWAP1 POP SWAP2 SWAP1 POP JUMP JUMPDEST PUSH1 0x0 DUP3 DUP3 MSTORE PUSH1 0x20 DUP3 ADD SWAP1 POP SWAP3 SWAP2 POP POP JUMP JUMPDEST PUSH1 0x0 DUP2 SWAP1 POP PUSH1 0x20 DUP3 ADD SWAP1 POP SWAP2 SWAP1 POP JUMP JUMPDEST PUSH1 0x0 DUP3 DUP3 MSTORE PUSH1 0x20 DUP3 ADD SWAP1 POP SWAP3 SWAP2 POP POP JUMP JUMPDEST PUSH1 0x0 PUSH2 0x229E DUP3 PUSH2 0x1CF1 JUMP JUMPDEST PUSH2 0x22A8 DUP2 DUP6 PUSH2 0x2282 JUMP JUMPDEST SWAP4 POP PUSH2 0x22B8 DUP2 DUP6 PUSH1 0x20 DUP7 ADD PUSH2 0x1D0D JUMP JUMPDEST PUSH2 0x22C1 DUP2 PUSH2 0x1D37 JUMP JUMPDEST DUP5 ADD SWAP2 POP POP SWAP3 SWAP2 POP POP JUMP JUMPDEST PUSH1 0x0 PUSH2 0x22D8 DUP4 DUP4 PUSH2 0x2293 JUMP JUMPDEST SWAP1 POP SWAP3 SWAP2 POP POP JUMP JUMPDEST PUSH1 0x0 PUSH1 0x20 DUP3 ADD SWAP1 POP SWAP2 SWAP1 POP JUMP JUMPDEST PUSH1 0x0 PUSH2 0x22F8 DUP3 PUSH2 0x2256 JUMP JUMPDEST PUSH2 0x2302 DUP2 DUP6 PUSH2 0x2261 JUMP JUMPDEST SWAP4 POP DUP4 PUSH1 0x20 DUP3 MUL DUP6 ADD PUSH2 0x2314 DUP6 PUSH2 0x2272 JUMP JUMPDEST DUP1 PUSH1 0x0 JUMPDEST DUP6 DUP2 LT ISZERO PUSH2 0x2350 JUMPI DUP5 DUP5 SUB DUP10 MSTORE DUP2 MLOAD PUSH2 0x2331 DUP6 DUP3 PUSH2 0x22CC JUMP JUMPDEST SWAP5 POP PUSH2 0x233C DUP4 PUSH2 0x22E0 JUMP JUMPDEST SWAP3 POP PUSH1 0x20 DUP11 ADD SWAP10 POP POP PUSH1 0x1 DUP2 ADD SWAP1 POP PUSH2 0x2318 JUMP JUMPDEST POP DUP3 SWAP8 POP DUP8 SWAP6 POP POP POP POP POP POP SWAP3 SWAP2 POP POP JUMP JUMPDEST PUSH1 0x0 PUSH1 0xE0 DUP3 ADD SWAP1 POP DUP2 DUP2 SUB PUSH1 0x0 DUP4 ADD MSTORE PUSH2 0x237C DUP2 DUP11 PUSH2 0x1ED0 JUMP JUMPDEST SWAP1 POP DUP2 DUP2 SUB PUSH1 0x20 DUP4 ADD MSTORE PUSH2 0x2390 DUP2 DUP10 PUSH2 0x22ED JUMP JUMPDEST SWAP1 POP DUP2 DUP2 SUB PUSH1 0x40 DUP4 ADD MSTORE PUSH2 0x23A4 DUP2 DUP9 PUSH2 0x22ED JUMP JUMPDEST SWAP1 POP DUP2 DUP2 SUB PUSH1 0x60 DUP4 ADD MSTORE PUSH2 0x23B8 DUP2 DUP8 PUSH2 0x22ED JUMP JUMPDEST SWAP1 POP DUP2 DUP2 SUB PUSH1 0x80 DUP4 ADD MSTORE PUSH2 0x23CC DUP2 DUP7 PUSH2 0x1ED0 JUMP JUMPDEST SWAP1 POP DUP2 DUP2 SUB PUSH1 0xA0 DUP4 ADD MSTORE PUSH2 0x23E0 DUP2 DUP6 PUSH2 0x1ED0 JUMP JUMPDEST SWAP1 POP DUP2 DUP2 SUB PUSH1 0xC0 DUP4 ADD MSTORE PUSH2 0x23F4 DUP2 DUP5 PUSH2 0x1FE6 JUMP JUMPDEST SWAP1 POP SWAP9 SWAP8 POP POP POP POP POP POP POP POP JUMP JUMPDEST PUSH2 0x240B DUP2 PUSH2 0x1DB0 JUMP JUMPDEST DUP2 EQ PUSH2 0x2416 JUMPI PUSH1 0x0 DUP1 REVERT JUMPDEST POP JUMP JUMPDEST PUSH1 0x0 DUP2 CALLDATALOAD SWAP1 POP PUSH2 0x2428 DUP2 PUSH2 0x2402 JUMP JUMPDEST SWAP3 SWAP2 POP POP JUMP JUMPDEST PUSH1 0x0 DUP1 PUSH1 0x40 DUP4 DUP6 SUB SLT ISZERO PUSH2 0x2445 JUMPI PUSH2 0x2444 PUSH2 0x1C84 JUMP JUMPDEST JUMPDEST PUSH1 0x0 PUSH2 0x2453 DUP6 DUP3 DUP7 ADD PUSH2 0x1CAF JUMP JUMPDEST SWAP3 POP POP PUSH1 0x20 PUSH2 0x2464 DUP6 DUP3 DUP7 ADD PUSH2 0x2419 JUMP JUMPDEST SWAP2 POP POP SWAP3 POP SWAP3 SWAP1 POP JUMP JUMPDEST PUSH1 0x0 DUP1 PUSH1 0x40 DUP4 DUP6 SUB SLT ISZERO PUSH2 0x2485 JUMPI PUSH2 0x2484 PUSH2 0x1C84 JUMP JUMPDEST JUMPDEST PUSH1 0x0 PUSH2 0x2493 DUP6 DUP3 DUP7 ADD PUSH2 0x1CAF JUMP JUMPDEST SWAP3 POP POP PUSH1 0x20 DUP4 ADD CALLDATALOAD PUSH8 0xFFFFFFFFFFFFFFFF DUP2 GT ISZERO PUSH2 0x24B4 JUMPI PUSH2 0x24B3 PUSH2 0x1C89 JUMP JUMPDEST JUMPDEST PUSH2 0x24C0 DUP6 DUP3 DUP7 ADD PUSH2 0x216D JUMP JUMPDEST SWAP2 POP POP SWAP3 POP SWAP3 SWAP1 POP JUMP JUMPDEST PUSH1 0x0 PUSH1 0xC0 DUP3 ADD SWAP1 POP DUP2 DUP2 SUB PUSH1 0x0 DUP4 ADD MSTORE PUSH2 0x24E4 DUP2 DUP10 PUSH2 0x1D48 JUMP JUMPDEST SWAP1 POP DUP2 DUP2 SUB PUSH1 0x20 DUP4 ADD MSTORE PUSH2 0x24F8 DUP2 DUP9 PUSH2 0x1D48 JUMP JUMPDEST SWAP1 POP DUP2 DUP2 SUB PUSH1 0x40 DUP4 ADD MSTORE PUSH2 0x250C DUP2 DUP8 PUSH2 0x1D48 JUMP JUMPDEST SWAP1 POP PUSH2 0x251B PUSH1 0x60 DUP4 ADD DUP7 PUSH2 0x1D81 JUMP JUMPDEST PUSH2 0x2528 PUSH1 0x80 DUP4 ADD DUP6 PUSH2 0x1D81 JUMP JUMPDEST PUSH2 0x2535 PUSH1 0xA0 DUP4 ADD DUP5 PUSH2 0x1DC2 JUMP JUMPDEST SWAP8 SWAP7 POP POP POP POP POP POP POP JUMP JUMPDEST PUSH32 0x4E487B7100000000000000000000000000000000000000000000000000000000 PUSH1 0x0 MSTORE PUSH1 0x22 PUSH1 0x4 MSTORE PUSH1 0x24 PUSH1 0x0 REVERT JUMPDEST PUSH1 0x0 PUSH1 0x2 DUP3 DIV SWAP1 POP PUSH1 0x1 DUP3 AND DUP1 PUSH2 0x2587 JUMPI PUSH1 0x7F DUP3 AND SWAP2 POP JUMPDEST PUSH1 0x20 DUP3 LT DUP2 SUB PUSH2 0x259A JUMPI PUSH2 0x2599 PUSH2 0x2540 JUMP JUMPDEST JUMPDEST POP SWAP2 SWAP1 POP JUMP JUMPDEST PUSH32 0x4F6E6C79207468652066696C65206F776E65722063616E20706572666F726D20 PUSH1 0x0 DUP3 ADD MSTORE PUSH32 0x7468697320616374696F6E000000000000000000000000000000000000000000 PUSH1 0x20 DUP3 ADD MSTORE POP JUMP JUMPDEST PUSH1 0x0 PUSH2 0x25FC PUSH1 0x2B DUP4 PUSH2 0x1CFC JUMP JUMPDEST SWAP2 POP PUSH2 0x2607 DUP3 PUSH2 0x25A0 JUMP JUMPDEST PUSH1 0x40 DUP3 ADD SWAP1 POP SWAP2 SWAP1 POP JUMP JUMPDEST PUSH1 0x0 PUSH1 0x20 DUP3 ADD SWAP1 POP DUP2 DUP2 SUB PUSH1 0x0 DUP4 ADD MSTORE PUSH2 0x262B DUP2 PUSH2 0x25EF JUMP JUMPDEST SWAP1 POP SWAP2 SWAP1 POP JUMP JUMPDEST PUSH32 0x46696C6520686173682063616E6E6F7420626520656D70747900000000000000 PUSH1 0x0 DUP3 ADD MSTORE POP JUMP JUMPDEST PUSH1 0x0 PUSH2 0x2668 PUSH1 0x19 DUP4 PUSH2 0x1CFC JUMP JUMPDEST SWAP2 POP PUSH2 0x2673 DUP3 PUSH2 0x2632 JUMP JUMPDEST PUSH1 0x20 DUP3 ADD SWAP1 POP SWAP2 SWAP1 POP JUMP JUMPDEST PUSH1 0x0 PUSH1 0x20 DUP3 ADD SWAP1 POP DUP2 DUP2 SUB PUSH1 0x0 DUP4 ADD MSTORE PUSH2 0x2697 DUP2 PUSH2 0x265B JUMP JUMPDEST SWAP1 POP SWAP2 SWAP1 POP JUMP JUMPDEST PUSH32 0x46696C65206E616D652063616E6E6F7420626520656D70747900000000000000 PUSH1 0x0 DUP3 ADD MSTORE POP JUMP JUMPDEST PUSH1 0x0 PUSH2 0x26D4 PUSH1 0x19 DUP4 PUSH2 0x1CFC JUMP JUMPDEST SWAP2 POP PUSH2 0x26DF DUP3 PUSH2 0x269E JUMP JUMPDEST PUSH1 0x20 DUP3 ADD SWAP1 POP SWAP2 SWAP1 POP JUMP JUMPDEST PUSH1 0x0 PUSH1 0x20 DUP3 ADD SWAP1 POP DUP2 DUP2 SUB PUSH1 0x0 DUP4 ADD MSTORE PUSH2 0x2703 DUP2 PUSH2 0x26C7 JUMP JUMPDEST SWAP1 POP SWAP2 SWAP1 POP JUMP JUMPDEST PUSH1 0x0 DUP2 SWAP1 POP DUP2 PUSH1 0x0 MSTORE PUSH1 0x20 PUSH1 0x0 KECCAK256 SWAP1 POP SWAP2 SWAP1 POP JUMP JUMPDEST PUSH1 0x0 PUSH1 0x20 PUSH1 0x1F DUP4 ADD DIV SWAP1 POP SWAP2 SWAP1 POP JUMP JUMPDEST PUSH1 0x0 DUP3 DUP3 SHL SWAP1 POP SWAP3 SWAP2 POP POP JUMP JUMPDEST PUSH1 0x0 PUSH1 0x8 DUP4 MUL PUSH2 0x276C PUSH32 0xFFFFFFFFFFFFFFFFFFFFFFFFFFFFFFFFFFFFFFFFFFFFFFFFFFFFFFFFFFFFFFFF DUP3 PUSH2 0x272F JUMP JUMPDEST PUSH2 0x2776 DUP7 DUP4 PUSH2 0x272F JUMP JUMPDEST SWAP6 POP DUP1 NOT DUP5 AND SWAP4 POP DUP1 DUP7 AND DUP5 OR SWAP3 POP POP POP SWAP4 SWAP3 POP POP POP JUMP JUMPDEST PUSH1 0x0 DUP2 SWAP1 POP SWAP2 SWAP1 POP JUMP JUMPDEST PUSH1 0x0 PUSH2 0x27B3 PUSH2 0x27AE PUSH2 0x27A9 DUP5 PUSH2 0x1C8E JUMP JUMPDEST PUSH2 0x278E JUMP JUMPDEST PUSH2 0x1C8E JUMP JUMPDEST SWAP1 POP SWAP2 SWAP1 POP JUMP JUMPDEST PUSH1 0x0 DUP2 SWAP1 POP SWAP2 SWAP1 POP JUMP JUMPDEST PUSH2 0x27CD DUP4 PUSH2 0x2798 JUMP JUMPDEST PUSH2 0x27E1 PUSH2 0x27D9 DUP3 PUSH2 0x27BA JUMP JUMPDEST DUP5 DUP5 SLOAD PUSH2 0x273C JUMP JUMPDEST DUP3 SSTORE POP POP POP POP JUMP JUMPDEST PUSH1 0x0 SWAP1 JUMP JUMPDEST PUSH2 0x27F6 PUSH2 0x27E9 JUMP JUMPDEST PUSH2 0x2801 DUP2 DUP5 DUP5 PUSH2 0x27C4 JUMP JUMPDEST POP POP POP JUMP JUMPDEST JUMPDEST DUP2 DUP2 LT ISZERO PUSH2 0x2825 JUMPI PUSH2 0x281A PUSH1 0x0 DUP3 PUSH2 0x27EE JUMP JUMPDEST PUSH1 0x1 DUP2 ADD SWAP1 POP PUSH2 0x2807 JUMP JUMPDEST POP POP JUMP JUMPDEST PUSH1 0x1F DUP3 GT ISZERO PUSH2 0x286A JUMPI PUSH2 0x283B DUP2 PUSH2 0x270A JUMP JUMPDEST PUSH2 0x2844 DUP5 PUSH2 0x271F JUMP JUMPDEST DUP2 ADD PUSH1 0x20 DUP6 LT ISZERO PUSH2 0x2853 JUMPI DUP2 SWAP1 POP JUMPDEST PUSH2 0x2867 PUSH2 0x285F DUP6 PUSH2 0x271F JUMP JUMPDEST DUP4 ADD DUP3 PUSH2 0x2806 JUMP JUMPDEST POP POP JUMPDEST POP POP POP JUMP JUMPDEST PUSH1 0x0 DUP3 DUP3 SHR SWAP1 POP SWAP3 SWAP2 POP POP JUMP JUMPDEST PUSH1 0x0 PUSH2 0x288D PUSH1 0x0 NOT DUP5 PUSH1 0x8 MUL PUSH2 0x286F JUMP JUMPDEST NOT DUP1 DUP4 AND SWAP2 POP POP SWAP3 SWAP2 POP POP JUMP JUMPDEST PUSH1 0x0 PUSH2 0x28A6 DUP4 DUP4 PUSH2 0x287C JUMP JUMPDEST SWAP2 POP DUP3 PUSH1 0x2 MUL DUP3 OR SWAP1 POP SWAP3 SWAP2 POP POP JUMP JUMPDEST PUSH2 0x28BF DUP3 PUSH2 0x1CF1 JUMP JUMPDEST PUSH8 0xFFFFFFFFFFFFFFFF DUP2 GT ISZERO PUSH2 0x28D8 JUMPI PUSH2 0x28D7 PUSH2 0x2070 JUMP JUMPDEST JUMPDEST PUSH2 0x28E2 DUP3 SLOAD PUSH2 0x256F JUMP JUMPDEST PUSH2 0x28ED DUP3 DUP3 DUP6 PUSH2 0x2829 JUMP JUMPDEST PUSH1 0x0 PUSH1 0x20 SWAP1 POP PUSH1 0x1F DUP4 GT PUSH1 0x1 DUP2 EQ PUSH2 0x2920 JUMPI PUSH1 0x0 DUP5 ISZERO PUSH2 0x290E JUMPI DUP3 DUP8 ADD MLOAD SWAP1 POP JUMPDEST PUSH2 0x2918 DUP6 DUP3 PUSH2 0x289A JUMP JUMPDEST DUP7 SSTORE POP PUSH2 0x2980 JUMP JUMPDEST PUSH1 0x1F NOT DUP5 AND PUSH2 0x292E DUP7 PUSH2 0x270A JUMP JUMPDEST PUSH1 0x0 JUMPDEST DUP3 DUP2 LT ISZERO PUSH2 0x2956 JUMPI DUP5 DUP10 ADD MLOAD DUP3 SSTORE PUSH1 0x1 DUP3 ADD SWAP2 POP PUSH1 0x20 DUP6 ADD SWAP5 POP PUSH1 0x20 DUP2 ADD SWAP1 POP PUSH2 0x2931 JUMP JUMPDEST DUP7 DUP4 LT ISZERO PUSH2 0x2973 JUMPI DUP5 DUP10 ADD MLOAD PUSH2 0x296F PUSH1 0x1F DUP10 AND DUP3 PUSH2 0x287C JUMP JUMPDEST DUP4 SSTORE POP JUMPDEST PUSH1 0x1 PUSH1 0x2 DUP9 MUL ADD DUP9 SSTORE POP POP POP JUMPDEST POP POP POP POP POP POP JUMP JUMPDEST PUSH32 0x4E487B7100000000000000000000000000000000000000000000000000000000 PUSH1 0x0 MSTORE PUSH1 0x11 PUSH1 0x4 MSTORE PUSH1 0x24 PUSH1 0x0 REVERT JUMPDEST PUSH1 0x0 PUSH2 0x29C2 DUP3 PUSH2 0x1C8E JUMP JUMPDEST SWAP2 POP PUSH32 0xFFFFFFFFFFFFFFFFFFFFFFFFFFFFFFFFFFFFFFFFFFFFFFFFFFFFFFFFFFFFFFFF DUP3 SUB PUSH2 0x29F4 JUMPI PUSH2 0x29F3 PUSH2 0x2988 JUMP JUMPDEST JUMPDEST PUSH1 0x1 DUP3 ADD SWAP1 POP SWAP2 SWAP1 POP JUMP JUMPDEST PUSH1 0x0 PUSH1 0xA0 DUP3 ADD SWAP1 POP PUSH2 0x2A14 PUSH1 0x0 DUP4 ADD DUP9 PUSH2 0x1D81 JUMP JUMPDEST DUP2 DUP2 SUB PUSH1 0x20 DUP4 ADD MSTORE PUSH2 0x2A26 DUP2 DUP8 PUSH2 0x1D48 JUMP JUMPDEST SWAP1 POP DUP2 DUP2 SUB PUSH1 0x40 DUP4 ADD MSTORE PUSH2 0x2A3A DUP2 DUP7 PUSH2 0x1D48 JUMP JUMPDEST SWAP1 POP PUSH2 0x2A49 PUSH1 0x60 DUP4 ADD DUP6 PUSH2 0x1D81 JUMP JUMPDEST PUSH2 0x2A56 PUSH1 0x80 DUP4 ADD DUP5 PUSH2 0x1DC2 JUMP JUMPDEST SWAP7 SWAP6 POP POP POP POP POP POP JUMP JUMPDEST PUSH32 0x4E487B7100000000000000000000000000000000000000000000000000000000 PUSH1 0x0 MSTORE PUSH1 0x32 PUSH1 0x4 MSTORE PUSH1 0x24 PUSH1 0x0 REVERT JUMPDEST PUSH32 0x496E76616C696420726563697069656E74206164647265737300000000000000 PUSH1 0x0 DUP3 ADD MSTORE POP JUMP JUMPDEST PUSH1 0x0 PUSH2 0x2AC5 PUSH1 0x19 DUP4 PUSH2 0x1CFC JUMP JUMPDEST SWAP2 POP PUSH2 0x2AD0 DUP3 PUSH2 0x2A8F JUMP JUMPDEST PUSH1 0x20 DUP3 ADD SWAP1 POP SWAP2 SWAP1 POP JUMP JUMPDEST PUSH1 0x0 PUSH1 0x20 DUP3 ADD SWAP1 POP DUP2 DUP2 SUB PUSH1 0x0 DUP4 ADD MSTORE PUSH2 0x2AF4 DUP2 PUSH2 0x2AB8 JUMP JUMPDEST SWAP1 POP SWAP2 SWAP1 POP JUMP JUMPDEST PUSH32 0x43616E6E6F74207368617265207769746820796F757273656C66000000000000 PUSH1 0x0 DUP3 ADD MSTORE POP JUMP JUMPDEST PUSH1 0x0 PUSH2 0x2B31 PUSH1 0x1A DUP4 PUSH2 0x1CFC JUMP JUMPDEST SWAP2 POP PUSH2 0x2B3C DUP3 PUSH2 0x2AFB JUMP JUMPDEST PUSH1 0x20 DUP3 ADD SWAP1 POP SWAP2 SWAP1 POP JUMP JUMPDEST PUSH1 0x0 PUSH1 0x20 DUP3 ADD SWAP1 POP DUP2 DUP2 SUB PUSH1 0x0 DUP4 ADD MSTORE PUSH2 0x2B60 DUP2 PUSH2 0x2B24 JUMP JUMPDEST SWAP1 POP SWAP2 SWAP1 POP JUMP JUMPDEST PUSH32 0x46696C6520616C72656164792073686172656420776974682074686973206164 PUSH1 0x0 DUP3 ADD MSTORE PUSH32 0x6472657373000000000000000000000000000000000000000000000000000000 PUSH1 0x20 DUP3 ADD MSTORE POP JUMP JUMPDEST PUSH1 0x0 PUSH2 0x2BC3 PUSH1 0x25 DUP4 PUSH2 0x1CFC JUMP JUMPDEST SWAP2 POP PUSH2 0x2BCE DUP3 PUSH2 0x2B67 JUMP JUMPDEST PUSH1 0x40 DUP3 ADD SWAP1 POP SWAP2 SWAP1 POP JUMP JUMPDEST PUSH1 0x0 PUSH1 0x20 DUP3 ADD SWAP1 POP DUP2 DUP2 SUB PUSH1 0x0 DUP4 ADD MSTORE PUSH2 0x2BF2 DUP2 PUSH2 0x2BB6 JUMP JUMPDEST SWAP1 POP SWAP2 SWAP1 POP JUMP JUMPDEST PUSH1 0x0 PUSH1 0x60 DUP3 ADD SWAP1 POP PUSH2 0x2C0E PUSH1 0x0 DUP4 ADD DUP7 PUSH2 0x1D81 JUMP JUMPDEST PUSH2 0x2C1B PUSH1 0x20 DUP4 ADD DUP6 PUSH2 0x1DC2 JUMP JUMPDEST PUSH2 0x2C28 PUSH1 0x40 DUP4 ADD DUP5 PUSH2 0x1DC2 JUMP JUMPDEST SWAP5 SWAP4 POP POP POP POP JUMP JUMPDEST PUSH1 0x0 PUSH2 0x2C3B DUP3 PUSH2 0x1C8E JUMP JUMPDEST SWAP2 POP PUSH2 0x2C46 DUP4 PUSH2 0x1C8E JUMP JUMPDEST SWAP3 POP DUP3 DUP3 SUB SWAP1 POP DUP2 DUP2 GT ISZERO PUSH2 0x2C5E JUMPI PUSH2 0x2C5D PUSH2 0x2988 JUMP JUMPDEST JUMPDEST SWAP3 SWAP2 POP POP JUMP JUMPDEST PUSH32 0x4E487B7100000000000000000000000000000000000000000000000000000000 PUSH1 0x0 MSTORE PUSH1 0x31 PUSH1 0x4 MSTORE PUSH1 0x24 PUSH1 0x0 REVERT JUMPDEST PUSH32 0x496E76616C696420616464726573730000000000000000000000000000000000 PUSH1 0x0 DUP3 ADD MSTORE POP JUMP JUMPDEST PUSH1 0x0 PUSH2 0x2CC9 PUSH1 0xF DUP4 PUSH2 0x1CFC JUMP JUMPDEST SWAP2 POP PUSH2 0x2CD4 DUP3 PUSH2 0x2C93 JUMP JUMPDEST PUSH1 0x20 DUP3 ADD SWAP1 POP SWAP2 SWAP1 POP JUMP JUMPDEST PUSH1 0x0 PUSH1 0x20 DUP3 ADD SWAP1 POP DUP2 DUP2 SUB PUSH1 0x0 DUP4 ADD MSTORE PUSH2 0x2CF8 DUP2 PUSH2 0x2CBC JUMP JUMPDEST SWAP1 POP SWAP2 SWAP1 POP JUMP JUMPDEST PUSH32 0x46696C65206E6F74207368617265642077697468207468697320616464726573 PUSH1 0x0 DUP3 ADD MSTORE PUSH32 0x7300000000000000000000000000000000000000000000000000000000000000 PUSH1 0x20 DUP3 ADD MSTORE POP JUMP JUMPDEST PUSH1 0x0 PUSH2 0x2D5B PUSH1 0x21 DUP4 PUSH2 0x1CFC JUMP JUMPDEST SWAP2 POP PUSH2 0x2D66 DUP3 PUSH2 0x2CFF JUMP JUMPDEST PUSH1 0x40 DUP3 ADD SWAP1 POP SWAP2 SWAP1 POP JUMP JUMPDEST PUSH1 0x0 PUSH1 0x20 DUP3 ADD SWAP1 POP DUP2 DUP2 SUB PUSH1 0x0 DUP4 ADD MSTORE PUSH2 0x2D8A DUP2 PUSH2 0x2D4E JUMP JUMPDEST SWAP1 POP SWAP2 SWAP1 POP JUMP INVALID LOG2 PUSH5 0x6970667358 0x22 SLT KECCAK256 CALLER BLOCKHASH 0xAD PUSH4 0x5ACB7BD8 SHR PUSH23 0xE67FB3A1097BB6A9C4523799B4A365D9AAFBBE7B936764 PUSH20 0x6F6C634300081300330000000000000000000000 "},"methodIdentifiers":{"checkAccess(uint256,address)":"d13c8703","deleteFile(uint256)":"c5b42006","fileCount()":"43953519","fileExists(uint256)":"2fe61ff6","files(uint256)":"f4c714b4","getFileDetails(uint256)":"0fb10631","getFileSharedList(uint256)":"48fe465a","getSharedFileCount()":"1596f1c5","getSharedFiles()":"914e3144","getUserFileCount()":"fe8712e7","getUserFiles()":"11942989","revokeAccess(uint256,address)":"d9a5ec1b","shareFile(uint256,address)":"aaccd05a","updateFileName(uint256,string)":"dd40298b","uploadFile(string,string,string,uint256)":"6ccc20f0"}}}}}