{
  "_format": "hh-sol-artifact-1",
  "contractName": "StorageContract",
  "sourceName": "contracts/StorageContract.sol",
  "abi": [
    {
      "anonymous": false,
      "inputs": [
        {
          "indexed": false,
          "internalType": "uint256",
          "name": "fileId",
          "type": "uint256"
        },
        {
          "indexed": false,
          "internalType": "address",
          "name": "owner",
          "type": "address"
        },
        {
          "indexed": false,
          "internalType": "address",
          "name": "revokedFrom",
          "type": "address"
        }
      ],
      "name": "FileAccessRevoked",
      "type": "event"
    },
    {
      "anonymous": false,
      "inputs": [
        {
          "indexed": false,
          "internalType": "uint256",
          "name": "fileId",
          "type": "uint256"
        },
        {
          "indexed": false,
          "internalType": "address",
          "name": "owner",
          "type": "address"
        },
        {
          "indexed": false,
          "internalType": "address",
          "name": "sharedWith",
          "type": "address"
        }
      ],
      "name": "FileShared",
      "type": "event"
    },
    {
      "anonymous": false,
      "inputs": [
        {
          "indexed": false,
          "internalType": "uint256",
          "name": "fileId",
          "type": "uint256"
        },
        {
          "indexed": false,
          "internalType": "string",
          "name": "fileHash",
          "type": "string"
        },
        {
          "indexed": false,
          "internalType": "string",
          "name": "fileName",
          "type": "string"
        },
        {
          "indexed": false,
          "internalType": "uint256",
          "name": "fileSize",
          "type": "uint256"
        },
        {
          "indexed": false,
          "internalType": "address",
          "name": "owner",
          "type": "address"
        }
      ],
      "name": "FileUploaded",
      "type": "event"
    },
    {
      "inputs": [
        {
          "internalType": "uint256",
          "name": "_fileId",
          "type": "uint256"
        },
        {
          "internalType": "address",
          "name": "_user",
          "type": "address"
        }
      ],
      "name": "checkAccess",
      "outputs": [
        {
          "internalType": "bool",
          "name": "",
          "type": "bool"
        }
      ],
      "stateMutability": "view",
      "type": "function"
    },
    {
      "inputs": [
        {
          "internalType": "uint256",
          "name": "_fileId",
          "type": "uint256"
        }
      ],
      "name": "deleteFile",
      "outputs": [
        {
          "internalType": "bool",
          "name": "",
          "type": "bool"
        }
      ],
      "stateMutability": "nonpayable",
      "type": "function"
    },
    {
      "inputs": [],
      "name": "fileCount",
      "outputs": [
        {
          "internalType": "uint256",
          "name": "",
          "type": "uint256"
        }
      ],
      "stateMutability": "view",
      "type": "function"
    },
    {
      "inputs": [
        {
          "internalType": "uint256",
          "name": "_fileId",
          "type": "uint256"
        }
      ],
      "name": "fileExists",
      "outputs": [
        {
          "internalType": "bool",
          "name": "",
          "type": "bool"
        }
      ],
      "stateMutability": "view",
      "type": "function"
    },
    {
      "inputs": [
        {
          "internalType": "uint256",
          "name": "",
          "type": "uint256"
        }
      ],
      "name": "files",
      "outputs": [
        {
          "internalType": "string",
          "name": "fileHash",
          "type": "string"
        },
        {
          "internalType": "string",
          "name": "fileName",
          "type": "string"
        },
        {
          "internalType": "string",
          "name": "fileType",
          "type": "string"
        },
        {
          "internalType": "uint256",
          "name": "fileSize",
          "type": "uint256"
        },
        {
          "internalType": "uint256",
          "name": "uploadTime",
          "type": "uint256"
        },
        {
          "internalType": "address",
          "name": "owner",
          "type": "address"
        }
      ],
      "stateMutability": "view",
      "type": "function"
    },
    {
      "inputs": [
        {
          "internalType": "uint256",
          "name": "_fileId",
          "type": "uint256"
        }
      ],
      "name": "getFileDetails",
      "outputs": [
        {
          "internalType": "string",
          "name": "fileHash",
          "type": "string"
        },
        {
          "internalType": "string",
          "name": "fileName",
          "type": "string"
        },
        {
          "internalType": "string",
          "name": "fileType",
          "type": "string"
        },
        {
          "internalType": "uint256",
          "name": "fileSize",
          "type": "uint256"
        },
        {
          "internalType": "uint256",
          "name": "uploadTime",
          "type": "uint256"
        },
        {
          "internalType": "address",
          "name": "owner",
          "type": "address"
        },
        {
          "internalType": "bool",
          "name": "hasAccess",
          "type": "bool"
        }
      ],
      "stateMutability": "view",
      "type": "function"
    },
    {
      "inputs": [
        {
          "internalType": "uint256",
          "name": "_fileId",
          "type": "uint256"
        }
      ],
      "name": "getFileSharedList",
      "outputs": [
        {
          "internalType": "address[]",
          "name": "",
          "type": "address[]"
        }
      ],
      "stateMutability": "view",
      "type": "function"
    },
    {
      "inputs": [],
      "name": "getSharedFileCount",
      "outputs": [
        {
          "internalType": "uint256",
          "name": "",
          "type": "uint256"
        }
      ],
      "stateMutability": "view",
      "type": "function"
    },
    {
      "inputs": [],
      "name": "getSharedFiles",
      "outputs": [
        {
          "internalType": "uint256[]",
          "name": "ids",
          "type": "uint256[]"
        },
        {
          "internalType": "string[]",
          "name": "hashes",
          "type": "string[]"
        },
        {
          "internalType": "string[]",
          "name": "names",
          "type": "string[]"
        },
        {
          "internalType": "string[]",
          "name": "types",
          "type": "string[]"
        },
        {
          "internalType": "uint256[]",
          "name": "sizes",
          "type": "uint256[]"
        },
        {
          "internalType": "uint256[]",
          "name": "times",
          "type": "uint256[]"
        },
        {
          "internalType": "address[]",
          "name": "owners",
          "type": "address[]"
        }
      ],
      "stateMutability": "view",
      "type": "function"
    },
    {
      "inputs": [],
      "name": "getUserFileCount",
      "outputs": [
        {
          "internalType": "uint256",
          "name": "",
          "type": "uint256"
        }
      ],
      "stateMutability": "view",
      "type": "function"
    },
    {
      "inputs": [],
      "name": "getUserFiles",
      "outputs": [
        {
          "internalType": "uint256[]",
          "name": "",
          "type": "uint256[]"
        }
      ],
      "stateMutability": "view",
      "type": "function"
    },
    {
      "inputs": [
        {
          "internalType": "uint256",
          "name": "_fileId",
          "type": "uint256"
        },
        {
          "internalType": "address",
          "name": "_revokeFrom",
          "type": "address"
        }
      ],
      "name": "revokeAccess",
      "outputs": [
        {
          "internalType": "bool",
          "name": "",
          "type": "bool"
        }
      ],
      "stateMutability": "nonpayable",
      "type": "function"
    },
    {
      "inputs": [
        {
          "internalType": "uint256",
          "name": "_fileId",
          "type": "uint256"
        },
        {
          "internalType": "address",
          "name": "_recipient",
          "type": "address"
        }
      ],
      "name": "shareFile",
      "outputs": [
        {
          "internalType": "bool",
          "name": "",
          "type": "bool"
        }
      ],
      "stateMutability": "nonpayable",
      "type": "function"
    },
    {
      "inputs": [
        {
          "internalType": "uint256",
          "name": "_fileId",
          "type": "uint256"
        },
        {
          "internalType": "string",
          "name": "_newFileName",
          "type": "string"
        }
      ],
      "name": "updateFileName",
      "outputs": [
        {
          "internalType": "bool",
          "name": "",
          "type": "bool"
        }
      ],
      "stateMutability": "nonpayable",
      "type": "function"
    },
    {
      "inputs": [
        {
          "internalType": "string",
          "name": "_fileHash",
          "type": "string"
        },
        {
          "internalType": "string",
          "name": "_fileName",
          "type": "string"
        },
        {
          "internalType": "string",
          "name": "_fileType",
          "type": "string"
        },
        {
          "internalType": "uint256",
          "name": "_fileSize",
          "type": "uint256"
        }
      ],
      "name": "uploadFile",
      "outputs": [
        {
          "internalType": "uint256",
          "name": "",
          "type": "uint256"
        }
      ],
      "stateMutability": "nonpayable",
      "type": "function"
    }
  ],
  "bytecode": "0x608060405234801561001057600080fd5b50612dc7806100206000396000f3fe608060405234801561001057600080fd5b50600436106100f55760003560e01c8063914e314411610097578063d9a5ec1b11610066578063d9a5ec1b146102ce578063dd40298b146102fe578063f4c714b41461032e578063fe8712e714610363576100f5565b8063914e31441461021a578063aaccd05a1461023e578063c5b420061461026e578063d13c87031461029e576100f5565b80632fe61ff6116100d35780632fe61ff61461016c578063439535191461019c57806348fe465a146101ba5780636ccc20f0146101ea576100f5565b80630fb10631146100fa57806311942989146101305780631596f1c51461014e575b600080fd5b610114600480360381019061010f9190611cc4565b610381565b6040516101279796959493929190611dec565b60405180910390f35b6101386105ca565b6040516101459190611f2e565b60405180910390f35b61015661065f565b6040516101639190611f50565b60405180910390f35b61018660048036038101906101819190611cc4565b6106a9565b6040516101939190611f6b565b60405180910390f35b6101a46106e4565b6040516101b19190611f50565b60405180910390f35b6101d460048036038101906101cf9190611cc4565b6106ea565b6040516101e19190612044565b60405180910390f35b61020460048036038101906101ff919061219b565b6107e3565b6040516102119190611f50565b60405180910390f35b6102226109dd565b6040516102359796959493929190612362565b60405180910390f35b6102586004803603810190610253919061242e565b610fea565b6040516102659190611f6b565b60405180910390f35b61028860048036038101906102839190611cc4565b611326565b6040516102959190611f6b565b60405180910390f35b6102b860048036038101906102b3919061242e565b6114dd565b6040516102c59190611f6b565b60405180910390f35b6102e860048036038101906102e3919061242e565b6115b4565b6040516102f59190611f6b565b60405180910390f35b6103186004803603810190610313919061246e565b611922565b6040516103259190611f6b565b60405180910390f35b61034860048036038101906103439190611cc4565b611a3c565b60405161035a969594939291906124ca565b60405180910390f35b61036b611c30565b6040516103789190611f50565b60405180910390f35b60608060606000806000806000600160008a8152602001908152602001600020905060006103af8a336114dd565b90506000816103cd576040518060200160405280600081525061045b565b8260000180546103dc9061256f565b80601f01602080910402602001604051908101604052809291908181526020018280546104089061256f565b80156104555780601f1061042a57610100808354040283529160200191610455565b820191906000526020600020905b81548152906001019060200180831161043857829003601f168201915b50505050505b9050808360010184600201856003015486600401548760050160009054906101000a900473ffffffffffffffffffffffffffffffffffffffff16878580546104a29061256f565b80601f01602080910402602001604051908101604052809291908181526020018280546104ce9061256f565b801561051b5780601f106104f05761010080835404028352916020019161051b565b820191906000526020600020905b8154815290600101906020018083116104fe57829003601f168201915b5050505050955084805461052e9061256f565b80601f016020809104026020016040519081016040528092919081815260200182805461055a9061256f565b80156105a75780601f1061057c576101008083540402835291602001916105a7565b820191906000526020600020905b81548152906001019060200180831161058a57829003601f168201915b505050505094509950995099509950995099509950505050919395979092949650565b6060600260003373ffffffffffffffffffffffffffffffffffffffff1673ffffffffffffffffffffffffffffffffffffffff16815260200190815260200160002080548060200260200160405190810160405280929190818152602001828054801561065557602002820191906000526020600020905b815481526020019060010190808311610641575b5050505050905090565b6000600360003373ffffffffffffffffffffffffffffffffffffffff1673ffffffffffffffffffffffffffffffffffffffff16815260200190815260200160002080549050905090565b60008054821080156106dd575060006001600084815260200190815260200160002060010180546106d99061256f565b9050115b9050919050565b60005481565b6060813373ffffffffffffffffffffffffffffffffffffffff166001600083815260200190815260200160002060050160009054906101000a900473ffffffffffffffffffffffffffffffffffffffff1673ffffffffffffffffffffffffffffffffffffffff1614610791576040517f08c379a000000000000000000000000000000000000000000000000000000000815260040161078890612612565b60405180910390fd5b600067ffffffffffffffff8111156107ac576107ab612070565b5b6040519080825280602002602001820160405280156107da5781602001602082028036833780820191505090505b50915050919050565b600080855111610828576040517f08c379a000000000000000000000000000000000000000000000000000000000815260040161081f9061267e565b60405180910390fd5b600084511161086c576040517f08c379a0000000000000000000000000000000000000000000000000000000008152600401610863906126ea565b60405180910390fd5b60008054905060006001600083815260200190815260200160002090508681600001908161089a91906128b6565b50858160010190816108ac91906128b6565b50848160020190816108be91906128b6565b50838160030181905550428160040181905550338160050160006101000a81548173ffffffffffffffffffffffffffffffffffffffff021916908373ffffffffffffffffffffffffffffffffffffffff160217905550600260003373ffffffffffffffffffffffffffffffffffffffff1673ffffffffffffffffffffffffffffffffffffffff16815260200190815260200160002082908060018154018082558091505060019003906000526020600020016000909190919091505560008081548092919061098c906129b7565b91905055507f32053c383fd6698497d9573f793a7ae108c26edad036e5bb6f6e0e6b95c47e3282888887336040516109c89594939291906129ff565b60405180910390a18192505050949350505050565b60608060608060608060606000600360003373ffffffffffffffffffffffffffffffffffffffff1673ffffffffffffffffffffffffffffffffffffffff168152602001908152602001600020805480602002602001604051908101604052809291908181526020018280548015610a7357602002820191906000526020600020905b815481526020019060010190808311610a5f575b505050505090506000815167ffffffffffffffff811115610a9757610a96612070565b5b604051908082528060200260200182016040528015610aca57816020015b6060815260200190600190039081610ab55790505b5090506000825167ffffffffffffffff811115610aea57610ae9612070565b5b604051908082528060200260200182016040528015610b1d57816020015b6060815260200190600190039081610b085790505b5090506000835167ffffffffffffffff811115610b3d57610b3c612070565b5b604051908082528060200260200182016040528015610b7057816020015b6060815260200190600190039081610b5b5790505b5090506000845167ffffffffffffffff811115610b9057610b8f612070565b5b604051908082528060200260200182016040528015610bbe5781602001602082028036833780820191505090505b5090506000855167ffffffffffffffff811115610bde57610bdd612070565b5b604051908082528060200260200182016040528015610c0c5781602001602082028036833780820191505090505b5090506000865167ffffffffffffffff811115610c2c57610c2b612070565b5b604051908082528060200260200182016040528015610c5a5781602001602082028036833780820191505090505b50905060005b8751811015610fc4576000888281518110610c7e57610c7d612a60565b5b6020026020010151905060006001600083815260200190815260200160002090508060060160003373ffffffffffffffffffffffffffffffffffffffff1673ffffffffffffffffffffffffffffffffffffffff16815260200190815260200160002060009054906101000a900460ff1615610faf57806000018054610d029061256f565b80601f0160208091040260200160405190810160405280929190818152602001828054610d2e9061256f565b8015610d7b5780601f10610d5057610100808354040283529160200191610d7b565b820191906000526020600020905b815481529060010190602001808311610d5e57829003601f168201915b5050505050898481518110610d9357610d92612a60565b5b6020026020010181905250806001018054610dad9061256f565b80601f0160208091040260200160405190810160405280929190818152602001828054610dd99061256f565b8015610e265780601f10610dfb57610100808354040283529160200191610e26565b820191906000526020600020905b815481529060010190602001808311610e0957829003601f168201915b5050505050888481518110610e3e57610e3d612a60565b5b6020026020010181905250806002018054610e589061256f565b80601f0160208091040260200160405190810160405280929190818152602001828054610e849061256f565b8015610ed15780601f10610ea657610100808354040283529160200191610ed1565b820191906000526020600020905b815481529060010190602001808311610eb457829003601f168201915b5050505050878481518110610ee957610ee8612a60565b5b60200260200101819052508060030154868481518110610f0c57610f0b612a60565b5b6020026020010181815250508060040154858481518110610f3057610f2f612a60565b5b6020026020010181815250508060050160009054906101000a900473ffffffffffffffffffffffffffffffffffffffff16848481518110610f7457610f73612a60565b5b602002602001019073ffffffffffffffffffffffffffffffffffffffff16908173ffffffffffffffffffffffffffffffffffffffff16815250505b50508080610fbc906129b7565b915050610c60565b50868686868686869d509d509d509d509d509d509d505050505050505090919293949596565b6000823373ffffffffffffffffffffffffffffffffffffffff166001600083815260200190815260200160002060050160009054906101000a900473ffffffffffffffffffffffffffffffffffffffff1673ffffffffffffffffffffffffffffffffffffffff1614611091576040517f08c379a000000000000000000000000000000000000000000000000000000000815260040161108890612612565b60405180910390fd5b600073ffffffffffffffffffffffffffffffffffffffff168373ffffffffffffffffffffffffffffffffffffffff1603611100576040517f08c379a00000000000000000000000000000000000000000000000000000000081526004016110f790612adb565b60405180910390fd5b3373ffffffffffffffffffffffffffffffffffffffff168373ffffffffffffffffffffffffffffffffffffffff160361116e576040517f08c379a000000000000000000000000000000000000000000000000000000000815260040161116590612b47565b60405180910390fd5b6001600085815260200190815260200160002060060160008473ffffffffffffffffffffffffffffffffffffffff1673ffffffffffffffffffffffffffffffffffffffff16815260200190815260200160002060009054906101000a900460ff161561120f576040517f08c379a000000000000000000000000000000000000000000000000000000000815260040161120690612bd9565b60405180910390fd5b600180600086815260200190815260200160002060060160008573ffffffffffffffffffffffffffffffffffffffff1673ffffffffffffffffffffffffffffffffffffffff16815260200190815260200160002060006101000a81548160ff021916908315150217905550600360008473ffffffffffffffffffffffffffffffffffffffff1673ffffffffffffffffffffffffffffffffffffffff1681526020019081526020016000208490806001815401808255809150506001900390600052602060002001600090919091909150557f1890daecbaaed994febade91e0d69b42771b5ea8e832a96f28d0538a80a15dbe84338560405161131393929190612bf9565b60405180910390a1600191505092915050565b6000813373ffffffffffffffffffffffffffffffffffffffff166001600083815260200190815260200160002060050160009054906101000a900473ffffffffffffffffffffffffffffffffffffffff1673ffffffffffffffffffffffffffffffffffffffff16146113cd576040517f08c379a00000000000000000000000000000000000000000000000000000000081526004016113c490612612565b60405180910390fd5b6000600260003373ffffffffffffffffffffffffffffffffffffffff1673ffffffffffffffffffffffffffffffffffffffff168152602001908152602001600020905060005b81805490508110156114d1578482828154811061143357611432612a60565b5b9060005260206000200154036114be5781600183805490506114559190612c30565b8154811061146657611465612a60565b5b906000526020600020015482828154811061148457611483612a60565b5b9060005260206000200181905550818054806114a3576114a2612c64565b5b600190038181906000526020600020016000905590556114d1565b80806114c9906129b7565b915050611413565b50600192505050919050565b60008173ffffffffffffffffffffffffffffffffffffffff166001600085815260200190815260200160002060050160009054906101000a900473ffffffffffffffffffffffffffffffffffffffff1673ffffffffffffffffffffffffffffffffffffffff1614806115ac57506001600084815260200190815260200160002060060160008373ffffffffffffffffffffffffffffffffffffffff1673ffffffffffffffffffffffffffffffffffffffff16815260200190815260200160002060009054906101000a900460ff165b905092915050565b6000823373ffffffffffffffffffffffffffffffffffffffff166001600083815260200190815260200160002060050160009054906101000a900473ffffffffffffffffffffffffffffffffffffffff1673ffffffffffffffffffffffffffffffffffffffff161461165b576040517f08c379a000000000000000000000000000000000000000000000000000000000815260040161165290612612565b60405180910390fd5b600073ffffffffffffffffffffffffffffffffffffffff168373ffffffffffffffffffffffffffffffffffffffff16036116ca576040517f08c379a00000000000000000000000000000000000000000000000000000000081526004016116c190612cdf565b60405180910390fd5b6001600085815260200190815260200160002060060160008473ffffffffffffffffffffffffffffffffffffffff1673ffffffffffffffffffffffffffffffffffffffff16815260200190815260200160002060009054906101000a900460ff1661176a576040517f08c379a000000000000000000000000000000000000000000000000000000000815260040161176190612d71565b60405180910390fd5b60006001600086815260200190815260200160002060060160008573ffffffffffffffffffffffffffffffffffffffff1673ffffffffffffffffffffffffffffffffffffffff16815260200190815260200160002060006101000a81548160ff0219169083151502179055506000600360008573ffffffffffffffffffffffffffffffffffffffff1673ffffffffffffffffffffffffffffffffffffffff168152602001908152602001600020905060005b81805490508110156118da578582828154811061183c5761183b612a60565b5b9060005260206000200154036118c757816001838054905061185e9190612c30565b8154811061186f5761186e612a60565b5b906000526020600020015482828154811061188d5761188c612a60565b5b9060005260206000200181905550818054806118ac576118ab612c64565b5b600190038181906000526020600020016000905590556118da565b80806118d2906129b7565b91505061181c565b507fa44e6d49c6e8e4b86891bc6076a2a9c460b67cc72efe9b5487e3bb5b0497aabf85338660405161190e93929190612bf9565b60405180910390a160019250505092915050565b6000823373ffffffffffffffffffffffffffffffffffffffff166001600083815260200190815260200160002060050160009054906101000a900473ffffffffffffffffffffffffffffffffffffffff1673ffffffffffffffffffffffffffffffffffffffff16146119c9576040517f08c379a00000000000000000000000000000000000000000000000000000000081526004016119c090612612565b60405180910390fd5b6000835111611a0d576040517f08c379a0000000000000000000000000000000000000000000000000000000008152600401611a04906126ea565b60405180910390fd5b82600160008681526020019081526020016000206001019081611a3091906128b6565b50600191505092915050565b6001602052806000526040600020600091509050806000018054611a5f9061256f565b80601f0160208091040260200160405190810160405280929190818152602001828054611a8b9061256f565b8015611ad85780601f10611aad57610100808354040283529160200191611ad8565b820191906000526020600020905b815481529060010190602001808311611abb57829003601f168201915b505050505090806001018054611aed9061256f565b80601f0160208091040260200160405190810160405280929190818152602001828054611b199061256f565b8015611b665780601f10611b3b57610100808354040283529160200191611b66565b820191906000526020600020905b815481529060010190602001808311611b4957829003601f168201915b505050505090806002018054611b7b9061256f565b80601f0160208091040260200160405190810160405280929190818152602001828054611ba79061256f565b8015611bf45780601f10611bc957610100808354040283529160200191611bf4565b820191906000526020600020905b815481529060010190602001808311611bd757829003601f168201915b5050505050908060030154908060040154908060050160009054906101000a900473ffffffffffffffffffffffffffffffffffffffff16905086565b6000600260003373ffffffffffffffffffffffffffffffffffffffff1673ffffffffffffffffffffffffffffffffffffffff16815260200190815260200160002080549050905090565b6000604051905090565b600080fd5b600080fd5b6000819050919050565b611ca181611c8e565b8114611cac57600080fd5b50565b600081359050611cbe81611c98565b92915050565b600060208284031215611cda57611cd9611c84565b5b6000611ce884828501611caf565b91505092915050565b600081519050919050565b600082825260208201905092915050565b60005b83811015611d2b578082015181840152602081019050611d10565b60008484015250505050565b6000601f19601f8301169050919050565b6000611d5382611cf1565b611d5d8185611cfc565b9350611d6d818560208601611d0d565b611d7681611d37565b840191505092915050565b611d8a81611c8e565b82525050565b600073ffffffffffffffffffffffffffffffffffffffff82169050919050565b6000611dbb82611d90565b9050919050565b611dcb81611db0565b82525050565b60008115159050919050565b611de681611dd1565b82525050565b600060e0820190508181036000830152611e06818a611d48565b90508181036020830152611e1a8189611d48565b90508181036040830152611e2e8188611d48565b9050611e3d6060830187611d81565b611e4a6080830186611d81565b611e5760a0830185611dc2565b611e6460c0830184611ddd565b98975050505050505050565b600081519050919050565b600082825260208201905092915050565b6000819050602082019050919050565b611ea581611c8e565b82525050565b6000611eb78383611e9c565b60208301905092915050565b6000602082019050919050565b6000611edb82611e70565b611ee58185611e7b565b9350611ef083611e8c565b8060005b83811015611f21578151611f088882611eab565b9750611f1383611ec3565b925050600181019050611ef4565b5085935050505092915050565b60006020820190508181036000830152611f488184611ed0565b905092915050565b6000602082019050611f656000830184611d81565b92915050565b6000602082019050611f806000830184611ddd565b92915050565b600081519050919050565b600082825260208201905092915050565b6000819050602082019050919050565b611fbb81611db0565b82525050565b6000611fcd8383611fb2565b60208301905092915050565b6000602082019050919050565b6000611ff182611f86565b611ffb8185611f91565b935061200683611fa2565b8060005b8381101561203757815161201e8882611fc1565b975061202983611fd9565b92505060018101905061200a565b5085935050505092915050565b6000602082019050818103600083015261205e8184611fe6565b905092915050565b600080fd5b600080fd5b7f4e487b7100000000000000000000000000000000000000000000000000000000600052604160045260246000fd5b6120a882611d37565b810181811067ffffffffffffffff821117156120c7576120c6612070565b5b80604052505050565b60006120da611c7a565b90506120e6828261209f565b919050565b600067ffffffffffffffff82111561210657612105612070565b5b61210f82611d37565b9050602081019050919050565b82818337600083830152505050565b600061213e612139846120eb565b6120d0565b90508281526020810184848401111561215a5761215961206b565b5b61216584828561211c565b509392505050565b600082601f83011261218257612181612066565b5b813561219284826020860161212b565b91505092915050565b600080600080608085870312156121b5576121b4611c84565b5b600085013567ffffffffffffffff8111156121d3576121d2611c89565b5b6121df8782880161216d565b945050602085013567ffffffffffffffff811115612200576121ff611c89565b5b61220c8782880161216d565b935050604085013567ffffffffffffffff81111561222d5761222c611c89565b5b6122398782880161216d565b925050606061224a87828801611caf565b91505092959194509250565b600081519050919050565b600082825260208201905092915050565b6000819050602082019050919050565b600082825260208201905092915050565b600061229e82611cf1565b6122a88185612282565b93506122b8818560208601611d0d565b6122c181611d37565b840191505092915050565b60006122d88383612293565b905092915050565b6000602082019050919050565b60006122f882612256565b6123028185612261565b93508360208202850161231485612272565b8060005b85811015612350578484038952815161233185826122cc565b945061233c836122e0565b925060208a01995050600181019050612318565b50829750879550505050505092915050565b600060e082019050818103600083015261237c818a611ed0565b9050818103602083015261239081896122ed565b905081810360408301526123a481886122ed565b905081810360608301526123b881876122ed565b905081810360808301526123cc8186611ed0565b905081810360a08301526123e08185611ed0565b905081810360c08301526123f48184611fe6565b905098975050505050505050565b61240b81611db0565b811461241657600080fd5b50565b60008135905061242881612402565b92915050565b6000806040838503121561244557612444611c84565b5b600061245385828601611caf565b925050602061246485828601612419565b9150509250929050565b6000806040838503121561248557612484611c84565b5b600061249385828601611caf565b925050602083013567ffffffffffffffff8111156124b4576124b3611c89565b5b6124c08582860161216d565b9150509250929050565b600060c08201905081810360008301526124e48189611d48565b905081810360208301526124f88188611d48565b9050818103604083015261250c8187611d48565b905061251b6060830186611d81565b6125286080830185611d81565b61253560a0830184611dc2565b979650505050505050565b7f4e487b7100000000000000000000000000000000000000000000000000000000600052602260045260246000fd5b6000600282049050600182168061258757607f821691505b60208210810361259a57612599612540565b5b50919050565b7f4f6e6c79207468652066696c65206f776e65722063616e20706572666f726d2060008201527f7468697320616374696f6e000000000000000000000000000000000000000000602082015250565b60006125fc602b83611cfc565b9150612607826125a0565b604082019050919050565b6000602082019050818103600083015261262b816125ef565b9050919050565b7f46696c6520686173682063616e6e6f7420626520656d70747900000000000000600082015250565b6000612668601983611cfc565b915061267382612632565b602082019050919050565b600060208201905081810360008301526126978161265b565b9050919050565b7f46696c65206e616d652063616e6e6f7420626520656d70747900000000000000600082015250565b60006126d4601983611cfc565b91506126df8261269e565b602082019050919050565b60006020820190508181036000830152612703816126c7565b9050919050565b60008190508160005260206000209050919050565b60006020601f8301049050919050565b600082821b905092915050565b60006008830261276c7fffffffffffffffffffffffffffffffffffffffffffffffffffffffffffffffff8261272f565b612776868361272f565b95508019841693508086168417925050509392505050565b6000819050919050565b60006127b36127ae6127a984611c8e565b61278e565b611c8e565b9050919050565b6000819050919050565b6127cd83612798565b6127e16127d9826127ba565b84845461273c565b825550505050565b600090565b6127f66127e9565b6128018184846127c4565b505050565b5b818110156128255761281a6000826127ee565b600181019050612807565b5050565b601f82111561286a5761283b8161270a565b6128448461271f565b81016020851015612853578190505b61286761285f8561271f565b830182612806565b50505b505050565b600082821c905092915050565b600061288d6000198460080261286f565b1980831691505092915050565b60006128a6838361287c565b9150826002028217905092915050565b6128bf82611cf1565b67ffffffffffffffff8111156128d8576128d7612070565b5b6128e2825461256f565b6128ed828285612829565b600060209050601f831160018114612920576000841561290e578287015190505b612918858261289a565b865550612980565b601f19841661292e8661270a565b60005b8281101561295657848901518255600182019150602085019450602081019050612931565b86831015612973578489015161296f601f89168261287c565b8355505b6001600288020188555050505b505050505050565b7f4e487b7100000000000000000000000000000000000000000000000000000000600052601160045260246000fd5b60006129c282611c8e565b91507fffffffffffffffffffffffffffffffffffffffffffffffffffffffffffffffff82036129f4576129f3612988565b5b600182019050919050565b600060a082019050612a146000830188611d81565b8181036020830152612a268187611d48565b90508181036040830152612a3a8186611d48565b9050612a496060830185611d81565b612a566080830184611dc2565b9695505050505050565b7f4e487b7100000000000000000000000000000000000000000000000000000000600052603260045260246000fd5b7f496e76616c696420726563697069656e74206164647265737300000000000000600082015250565b6000612ac5601983611cfc565b9150612ad082612a8f565b602082019050919050565b60006020820190508181036000830152612af481612ab8565b9050919050565b7f43616e6e6f74207368617265207769746820796f757273656c66000000000000600082015250565b6000612b31601a83611cfc565b9150612b3c82612afb565b602082019050919050565b60006020820190508181036000830152612b6081612b24565b9050919050565b7f46696c6520616c7265616479207368617265642077697468207468697320616460008201527f6472657373000000000000000000000000000000000000000000000000000000602082015250565b6000612bc3602583611cfc565b9150612bce82612b67565b604082019050919050565b60006020820190508181036000830152612bf281612bb6565b9050919050565b6000606082019050612c0e6000830186611d81565b612c1b6020830185611dc2565b612c286040830184611dc2565b949350505050565b6000612c3b82611c8e565b9150612c4683611c8e565b9250828203905081811115612c5e57612c5d612988565b5b92915050565b7f4e487b7100000000000000000000000000000000000000000000000000000000600052603160045260246000fd5b7f496e76616c696420616464726573730000000000000000000000000000000000600082015250565b6000612cc9600f83611cfc565b9150612cd482612c93565b602082019050919050565b60006020820190508181036000830152612cf881612cbc565b9050919050565b7f46696c65206e6f7420736861726564207769746820746869732061646472657360008201527f7300000000000000000000000000000000000000000000000000000000000000602082015250565b6000612d5b602183611cfc565b9150612d6682612cff565b604082019050919050565b60006020820190508181036000830152612d8a81612d4e565b905091905056fea26469706673582212203340ad635acb7bd81c76e67fb3a1097bb6a9c4523799b4a365d9aafbbe7b936764736f6c63430008130033",
  "linkReferences": {},
  "deployedLinkReferences": {}
}